:020000040800F2
:10000000B8040020412D0008B1010008B301000828
:10001000B7010008BB010008BF0100080000000094
:10002000000000000000000000000000C501000802
:10003000C301000800000000C7010008C901000852
:100040005B2D00085B2D00085B2D00085B2D000870
:100050005B2D00085B2D00085B2D00085B2D000860
:100060005B2D00085B2D00085B2D00085B2D000850
:100070005B2D00085B2D00085B2D00085B2D000840
:100080005B2D00085B2D00085B2D00085B2D000830
:100090005B2D00085B2D00085B2D00085B2D000820
:1000A0005B2D00085B2D00085B2D00085B2D000810
:1000B0005B2D00085B2D00085B2D00085B2D000800
:1000C0005B2D00085B2D00085B2D00085B2D0008F0
:1000D0005B2D00085B2D00085B2D0008D101000896
:1000E0005B2D00085B2D00085B2D00085B2D0008D0
:1000F0005B2D00085B2D00085B2D00085B2D0008C0
:100100005B2D00085B2D00085B2D00085B2D0008AF
:100110005B2D00085B2D00085B2D00085B2D00089F
:100120005B2D00085B2D00085B2D00085B2D00088F
:100130005B2D00085B2D00085B2D00085B2D00087F
:100140005B2D00085B2D00085B2D00085B2D00086F
:100150005B2D00085B2D00085B2D00085B2D00085F
:100160005B2D00085B2D00085B2D00085B2D00084F
:100170005B2D00085B2D00085B2D00085B2D00083F
:100180005B2D00085B2D0008DFF80CD004F0AEF802
:10019000004800479D010008B804002002F009FC57
:1001A00000F02CF800F02FF801E000F033F8FCE745
:1001B000704700BFFEE700BFFEE700BFFEE700BFDD
:1001C000FEE770477047704710B502F056FC10BD4F
:1001D00010B52021084803F0DCFE01280AD12021B7
:1001E000054803F0E3FE0448001D0088C1B2032067
:1001F00000F08AF810BD00000048004010B500F083
:1002000053FC002010BD10B5FFF7F8FF00F046F8D2
:10021000002010BD08B5002000906A460021032090
:1002200000F00FF99DF80000072833D2DFE800F056
:1002300032040A101B2631004FF48071164803F077
:10024000F1F927E04FF48071134803F0E9F921E058
:100250004FF40071104803F0E5F94FF480610E4847
:1002600003F0E0F916E04FF400710B4803F0DAF9FF
:100270004FF48061084803F0D3F90BE04FF40071AC
:10028000054803F0CDF94FF48061034803F0CAF943
:1002900000E000BF00BF08BD0000024000210BE0ED
:1002A0000020884A42F82100002286480C3042543F
:1002B000C01C4254481CC1B20329F1DB8248814A68
:1002C000106082485060002070470146012904D028
:1002D000022909D0032913D10CE07A48C07B794A5E
:1002E000127B801AC0B270477648027C407B101A9D
:1002F000C0B2F8E77348427C807B101AC0B2F2E7C4
:1003000000BF00BF0020EEE70246012A04D0022A07
:1003100017D0032A3FD129E06A48006880B16948B4
:10032000C07B312802DD4FF0FF3070476548006820
:10033000644BDB7BC1546348C07B401C614BD8736A
:100340002AE06048406880B15E48007C312802DDC8
:100350004FF0FF30E9E75B484368007C1954594887
:10036000007C401CC3B25748037415E055488068B0
:1003700080B15448407C312802DD4FF0FF30D4E793
:1003800050488368407C19544E48407C401CC3B29E
:100390004C48437400E000BF00BF0020C5E70246A0
:1003A000012A04D0022A1AD0032A46D12EE0454859
:1003B000006898B143480068424B1B7BC05C0870E2
:1003C0004048007B401C3F4B18731846007BDB7B8A
:1003D000984203DB00203B4B1873D8732EE039485A
:1003E000406890B137484368407B185C08703548D6
:1003F000407B401CC3B233484373437B007C834241
:1004000003DB00232F484373037417E02D488068F3
:1004100090B12C488368807B185C08702948807BE9
:10042000401CC3B227488373837B407C834203DB39
:10043000002324488373437400E000BF00BF002002
:10044000704778B505460E46144634E0694628469E
:10045000FFF7A5FF1E48007805282AD2DFE800F044
:10046000030B132125009DF80000FE2802D1012076
:10047000174908701EE09DF8000016490870022018
:100480001349087016E09DF80000207011480078AC
:1004900018B100200E49087002E000200C490870D5
:1004A00008E000200A49087004E0002008490870AC
:1004B00000E000BF00BF2846FFF707FF0028C5D1B6
:1004C00078BD000098000020340000206600002065
:1004D0000000002001000020F74908807047F6491D
:1004E000891C08807047F448801C00887047F24AD5
:1004F0001080921C1180704710B504462046FFF70B
:10050000EBFF052002F0A2FAFFF7EDFF10BDEB486C
:10051000C079E94908807047E749891C088070471D
:1005200030B5014601F01F04C1F34513CA0AE502C4
:1005300005EB43151544A8B230BD00BF0100A0F182
:100540000102D0B2FAD1704710B503460C46DB4821
:10055000808849F24131884205D0D848808846F6E3
:100560000401884214D1D549087AFFF7B5FF181263
:10057000FFF7B5FFD8B2FFF7B2FFD049487AFFF7CF
:10058000ABFF2012FFF7ABFFE0B2FFF7A8FF12E0CE
:10059000CA488079012804D1C8480088401EC01A82
:1005A00083B2C649087A1946FFF7A1FFC349487AC2
:1005B0002146FFF79CFF10BD2DE9F04105460E4690
:1005C00000240027A046BD480088A84203DDBB48A0
:1005D0004088B04202DC0020BDE8F0813146284668
:1005E000FFF7B2FFB548808849F24131884205D013
:1005F000B248808846F60401884203D12E20FFF7D6
:100600006BFF02E02220FFF767FFAC48808849F2C9
:100610002031884202D10220FFF78FFFA648801CBC
:10062000008800B100240220FFF787FFA248801C49
:100630000488A248808849F2413188420CD10220C6
:10064000FFF77BFF9C48801CB0F80080E7B24FF6B4
:10065000FF7000EA072708E09848808846F6040102
:10066000884202D19448801C04889448808849F2CA
:100670002531884216D09148808844F2355188420D
:1006800010D08E488088091F88420BD08B48808804
:1006900048F68911884205D0884880884BF2055178
:1006A000884201D1204697E78448808849F2413149
:1006B000884207D1E012C002B91240EA411040EA74
:1006C000E82089E72046FFF72BFF85E700B57B4848
:1006D000808849F24131884205D07848808846F6C2
:1006E0000401884203D12920FFF7F6FE04E040F21E
:1006F00073110720FFF7FBFE00BD00B56F4880882F
:1007000049F24131884205D06C48808846F60401A0
:10071000884203D12820FFF7DFFE03E000210720F5
:10072000FFF7E5FE00BD70B50446002300266348D0
:10073000807901281ED16148808846F604018842EC
:1007400018D0082C15D2DFE804F00406080A0C0EB5
:10075000101206240DE007240BE0042409E0052410
:1007600007E0012405E0002403E0032401E0022463
:1007700000BF00BF5148808849F24131884205D00E
:100780004E48808846F6040188427CD1082C1CD251
:10079000DFE804F00406090C0F12151800BF14E07E
:1007A00043F0800311E043F040030EE043F0C00348
:1007B0000BE043F0200308E043F0600305E043F062
:1007C000A00302E043F0E00300BF00BF362643F081
:1007D00008033A48808846F60401884201D143F074
:1007E000020319463046FFF782FE03F0200068B18D
:1007F0003248008831494988884214DA2F480588F0
:1008000040882E490880084645800CE02B48008827
:100810002A494988884206DD2848058840882749B2
:100820000880084645802549087AFFF755FE0020D4
:10083000FFF755FE0020FFF752FE20490988491EA8
:10084000C1F30F20FFF74BFE1C490978491EC8B2BF
:10085000FFF745FE1949487AFFF73EFE0020FFF7F3
:100860003EFE0020FFF73BFE14494988491EC1F3B4
:100870000F20FFF734FE11498978491EC8B2FFF7EF
:100880002EFE36E0FFE7082C20D2DFE804F0040754
:100890000A0D0F12191C43F0300317E043F0100348
:1008A00014E043F0200311E000BF0FE043F03803F1
:1008B0000CE043F0280309E0FEFF0F60AC000020CD
:1008C00043F0180302E043F0080300BF00BFFE48F6
:1008D000808848F68911884204D1112646F24000EA
:1008E000034302E0032643F4805319463046FFF7E2
:1008F000FEFD70BD30B504460D4629462046FFF783
:1009000023FEFFF704FEF1480088F149088030BD5E
:1009100030B503460C461546EB48808849F2413114
:10092000884205D0E848808846F60401884214D100
:10093000E549087AFFF7D0FD1812FFF7D0FDD8B2CD
:10094000FFF7CDFDE049487AFFF7C6FD2012FFF71B
:10095000C6FDE0B2FFF7C3FD12E0DB488079012855
:1009600004D1D9480088401EC01A83B2D649087AFB
:100970001946FFF7BCFDD449487A2146FFF7B7FD79
:10098000D148C079D249891E0880881C058030BDB5
:1009900010B50446002C3DD1CB498871F020088069
:1009A0004FF4A07048800846808849F2413188425F
:1009B00005D0C548808846F60401884214D12C2011
:1009C000C149C8712A2008722B20487208468088C5
:1009D00046F6040188424ED14FF4A070BA4908800F
:1009E0004FF4F070488046E0B748808848F6891197
:1009F000884207D12220B449C8714E2008724F2086
:100A0000487238E02220B049C871202008722120A5
:100A1000487230E0AC48808846F6040188422AD00B
:100A20000120A94988714FF4A0700880F020488007
:100A30000846808849F24131884207D12C20A249DA
:100A4000C8712A2008722B20487214E09E488088C2
:100A500048F68911884207D122209B49C8714F204E
:100A600008724E20487206E022209749C871212062
:100A70000872202048720020FFF755FE10BD70B5A7
:100A800004460026904805884088454300210846D2
:100A9000FFF75AFDFFF73BFD00BF02E08C480480E2
:100AA000761CAE42FAD370BD00B59FB00121084656
:100AB00002F0A2FF01211A2002F07CFF01208DF834
:100AC000780003208DF8790000208DF87A0004204A
:100AD0001D9000208DF87B001DA97E4802F024FDAA
:100AE00003208DF8790002208DF878004CF2037015
:100AF0001D901DA9784802F017FD4FF680701D90DB
:100B00001DA9744802F010FD10201D901DA9724807
:100B100002F00AFD20201D901DA96F4802F004FD7F
:100B200080201D901DA96C4802F0FEFC08201D903D
:100B30001DA9684802F0F8FC0C220021664802F06A
:100B40007EFD0C220121644802F079FD0C22042173
:100B5000614802F074FD0C2205215F4802F06FFD30
:100B60000C2207215C4802F06AFD0C2208215A4839
:100B700002F065FD0C220921574802F060FD0C22AD
:100B80000A21554802F05BFD0C220321514802F076
:100B900056FD0C220E21504802F051FD0C220F216F
:100BA0004D4802F04CFD0C2207214A4802F047FD57
:100BB0000C220821474802F042FD0C220921454839
:100BC00002F03DFD0C220A21424802F038FD0C22C1
:100BD0000B21404802F033FD0C2211463D4802F043
:100BE0002EFD0C220D213B4802F029FD0C220E2186
:100BF000384802F024FD0C220F21364802F01FFD78
:100C000005200790002008900920099000200A90F4
:100C10000B900C900D900520009000200190092071
:100C20000290002003900490059006900021084651
:100C300002F0CFF900200E900F901090102011902C
:100C40000020129014901390159016904FF480503D
:100C50001790002018904FF48040199000201A90AF
:100C600007A81B90CDF870D00EA802F006F901215C
:100C7000002002F0AEF91021174802F0D1FC20212B
:100C8000154802F0CDFC8021134802F0C9FC322047
:100C900001F0E6FE01210020FFF729FC322001F0DF
:100CA000DFFE0020FFF728FC07498880084680887F
:100CB000FF2816DB084680884FF6FF71884210D067
:100CC000014880880AE00000AC00002002000020FB
:100CD0000000106000100240000C0240B0F5134FFD
:100CE0004BD1D320FFF7F8FBFFF7FDFBFFF7FBFB32
:100CF000FFF7F9FBFE498880084680884FF6FF71B0
:100D000001EA0020FA498880FFF7EDFBF84989885D
:100D10000843F74988800846808849F24131884273
:100D20001BD0BF20FFF7D8FBFFF7DDFBFFF7DBFB96
:100D3000FFF7D9FBFFF7D7FBED498880084680888D
:100D40004FF6FF7101EA0020E9498880FFF7CBFBED
:100D5000E74989880843E6498880E548808849F260
:100D60004131884209D0E248808846F60401884231
:100D700003D049F24130DE498880DD488188DDA01A
:100D800003F0C6FADA48808849F2413188427CD1C2
:100D9000CF20FFF7A1FB0020FFF7A1FBC120FFF749
:100DA0009EFB3020FFF79BFBED20FFF795FB6420B7
:100DB000FFF795FB0320FFF792FB1220FFF78FFB55
:100DC0008120FFF78CFBE820FFF786FB8520FFF7EB
:100DD00086FB1020FFF783FB7A20FFF780FBCB20F8
:100DE000FFF77AFB3920FFF77AFB2C20FFF777FB20
:100DF0000020FFF774FB3420FFF771FB0220FFF7A0
:100E00006EFBF720FFF768FB2020FFF768FBEA2066
:100E1000FFF762FB0020FFF762FB0020FFF75FFB9C
:100E2000C020FFF759FB1B20FFF759FBC120FFF73C
:100E300053FB0120FFF753FBC520FFF74DFB30208C
:100E4000FFF74DFB3020FFF74AFBC720FFF744FBBD
:100E5000B720FFF744FB3620FFF73EFB4820FFF7A3
:100E60003EFB3A20FFF738FB5520FFF738FBB12057
:100E7000FFF732FB0020FFF732FB1A20FFF72FFBB2
:100E8000B620FFF729FB0A2000E099E0FFF727FBD7
:100E9000A220FFF724FBF220FFF71EFB0020FFF744
:100EA0001EFB2620FFF718FB0120FFF718FBE020B0
:100EB000FFF712FB0F20FFF712FB2A20FFF70FFBB3
:100EC0002820FFF70CFB0820FFF709FB0E20FFF797
:100ED00006FB0820FFF703FB5420FFF700FBA920C7
:100EE000FFF7FDFA4320FFF7FAFA0A20FFF7F7FAB7
:100EF0000F20FFF7F4FA0020FFF7F1FA0020FFF7C8
:100F0000EEFA0020FFF7EBFA0020FFF7E8FAE12005
:100F1000FFF7E2FA0020FFF7E2FA1520FFF7DFFA09
:100F20001720FFF7DCFA0720FFF7D9FA1120FFF7A7
:100F3000D6FA0620FFF7D3FA2B20FFF7D0FA562077
:100F4000FFF7CDFA3C20FFF7CAFA0520FFF7C7FAF2
:100F50001020FFF7C4FA0F20FFF7C1FA3F20FFF778
:100F6000BEFA3F20FFF7BBFA0F20FFF7B8FA2B209D
:100F7000FFF7B2FA0020FFF7B2FA0020FFF7AFFA4E
:100F80000120FFF7ACFA3F20FFF7A9FA2A20FFF76C
:100F9000A3FA0020FFF7A3FA0020FFF7A0FA002031
:100FA000FFF79DFAEF20FFF79AFA1120FFF794FA66
:100FB000782001F055FD2920FFF78EFA01F01DBAC7
:100FC0004B48808846F6040188427CD11120FFF707
:100FD00083FA142001F044FDD020FFF77DFA0720AA
:100FE000FFF77DFA4220FFF77AFA1D20FFF777FA24
:100FF000D120FFF771FA0020FFF771FA1A20FFF7EE
:101000006EFA0920FFF76BFAD220FFF765FA01208C
:10101000FFF765FA2220FFF762FAC020FFF75CFABB
:101020001020FFF75CFA3B20FFF759FA0020FFF78A
:1010300056FA0220FFF753FA1120FFF750FAC520A5
:10104000FFF74AFA0320FFF74AFAC820FFF744FAED
:101050000020FFF744FA2520FFF741FA2120FFF78F
:101060003EFA0520FFF73BFA0020FFF738FA0A2086
:10107000FFF735FA6520FFF732FA2520FFF72FFA40
:101080007720FFF72CFA5020FFF729FA0F20FFF7FF
:1010900026FA0020FFF723FAF820FFF71DFA0120B7
:1010A000FFF71DFAFE20FFF717FA0020FFF717FAE7
:1010B0000220FFF714FA2020FFF70EFA3620FFF780
:1010C0000BFA082000E038E0FFF709FA3A20FFF7B2
:1010D00003FA5520FFF703FA2B20FFF7FDF9002054
:1010E000FFF7FDF90020FFF7FAF901200AE0000000
:1010F000AC000020204C43442049443A25780D0A96
:1011000000000000FFF7EBF93F20FFF7E8F92A2085
:10111000FFF7E2F90020FFF7E2F90020FFF7DFF91F
:101120000120FFF7DCF9DF20FFF7D9F9782001F083
:1011300097FC2920FFF7D0F940E7FE48808849F264
:10114000253188427ED147F6F001E520FFF7CFF93F
:101150004FF480710120FFF7CAF94FF4E0610220DB
:10116000FFF7C5F941F230010320FFF7C0F9002174
:101170000420FFF7BCF940F202210820FFF7B7F97D
:1011800000210920FFF7B3F900210A20FFF7AFF98A
:1011900000210C20FFF7ABF900210D20FFF7A7F984
:1011A00000210F20FFF7A3F900211020FFF79FF97E
:1011B00007211120FFF79BF900211220FFF797F973
:1011C00000211320FFF793F900210720FFF78FF983
:1011D00041F290611020FFF78AF940F22721112097
:1011E000FFF785F99D211220FFF781F94FF4C851CF
:1011F0001320FFF77CF925212920FFF778F90D212D
:101200002B20FFF774F907213020FFF770F940F227
:1012100003313120FFF76BF903213220FFF767F923
:1012200040F206213520FFF762F908213620FFF74A
:101230005EF940F206413720FFF759F94FF441714A
:10124000382000E057E0FFF752F907213920FFF777
:101250004EF940F202613C20FFF749F908213D2098
:10126000FFF745F900215020FFF741F9EF21512008
:10127000FFF73DF900215220FFF739F940F23F1105
:101280005320FFF734F94FF427416020FFF72FF97F
:1012900001216120FFF72BF900216A20FFF727F9D0
:1012A00000218020FFF723F900218120FFF71FF99B
:1012B00000218220FFF71BF900218320FFF717F997
:1012C00000218420FFF713F900218520FFF70FF993
:1012D00010219020FFF70BF94FF4C0619220FFF727
:1012E00006F940F233110720FFF701F9222100200F
:1012F000FFF7FDF862E68F48808849F2283188427E
:101300007ED141F28F01EC20FFF7F1F841F2342158
:10131000EF20FFF7ECF84FF480710120FFF7E7F8BA
:101320004FF4E0610220FFF7E2F841F230010320C0
:10133000FFF7DDF800210420FFF7D9F840F2022181
:101340000820FFF7D4F800210920FFF7D0F800218A
:101350000A20FFF7CCF801210C20FFF7C8F8002184
:101360000D20FFF7C4F800210F20FFF7C0F800217F
:101370001020FFF7BCF807211120FFF7B8F8002173
:101380001220FFF7B4F800211320FFF7B0F8012175
:101390000720FFF7ACF8322001F062FB41F29041E8
:1013A0001020FFF7A4F840F227211120FFF79FF843
:1013B000322001F055FB8A211220FFF798F83220E5
:1013C00001F04EFB4FF4D0511320FFF790F80621A7
:1013D0002920FFF78CF80D212B20FFF788F8322009
:1013E00001F03EFB00212020FFF781F800212120A1
:1013F000FFF77DF8322001F033FB0021302000E0C0
:1014000074E0FFF774F840F204613120FFF76FF8E1
:1014100040F205313220FFF76AF800213520FFF74E
:1014200066F840F609413620FFF761F84FF4017184
:101430003720FFF75CF840F201313820FFF757F80A
:1014400040F207713920FFF752F800213C20FFF7E6
:101450004EF840F60A213D20FFF749F8322001F00E
:10146000FFFA00215020FFF742F8EF215120FFF74B
:101470003EF800215220FFF73AF840F23F11532086
:10148000FFF735F84FF427416020FFF730F80121CE
:101490006120FFF72CF800216A20FFF728F80021CF
:1014A0008020FFF724F800218120FFF720F8002199
:1014B0008220FFF71CF800218320FFF718F8002195
:1014C0008420FFF714F800218520FFF710F8102181
:1014D0009020FFF70CF84FF4C0619220FFF707F857
:1014E00040F233110720FFF702F867E511488088C2
:1014F00049F2203188427DD100210846FEF7F7FFEE
:101500004FF480710120FEF7F2FF4FF4E0610220FA
:10151000FEF7EDFF41F230010320FEF7E8FF002166
:101520000420FEF7E4FF40F202210820FEF7DFFF6F
:10153000002101E0AC0000200920FEF7D8FF0021C7
:101540000A20FEF7D4FF01210C20FEF7D0FF002176
:101550000D20FEF7CCFF00210F20FEF7C8FF322040
:1015600001F07EFA40F201110720FEF7C0FF3220A1
:1015700001F076FA4FF486511020FEF7B8FF0721EC
:101580001120FEF7B4FF4FF488711220FEF7AFFF71
:101590004FF430611320FEF7AAFF00212920FEF747
:1015A000A6FF44F210012B20FEF7A1FF00215020DE
:1015B000FEF79DFFEF215120FEF799FF00215220F9
:1015C000FEF795FF40F23F115320FEF790FF4FF4D6
:1015D0001C516020FEF78BFF01216120FEF787FF81
:1015E00000216A20FEF783FF00218020FEF77FFFA5
:1015F000002100E031E08120FEF779FF0021822008
:10160000FEF775FF00218320FEF771FF0021842083
:10161000FEF76DFF00218520FEF769FF1021902065
:10162000FEF765FF00219220FEF761FF0121932064
:10163000FEF75DFF4FF488719520FEF758FF0021FB
:101640009720FEF754FF00219820FEF750FF40F24C
:1016500073110720FEF74BFFB0E4FE48808849F283
:10166000313188427DD141F21401E720FEF73FFF7E
:101670004FF480710120FEF73AFF4FF40071022011
:10168000FEF735FF41F238010320FEF730FF40F24C
:1016900002210820FEF72BFF00210920FEF727FF7B
:1016A00000210A20FEF723FF00210C20FEF71FFF78
:1016B00000210D20FEF71BFF00210F20FEF717FF72
:1016C00000211020FEF713FF07211120FEF70FFF66
:1016D00000211220FEF70BFF00211320FEF707FF69
:1016E000C82001F0BDF941F290611020FEF7FFFE25
:1016F00040F227211120FEF7FAFE322001F0B0F966
:101700000C211220FEF7F3FE322001F0A9F94FF46C
:1017100000611320FEF7EBFE11212920FEF7E7FE02
:101720000B212B20FEF7E3FE322001F099F9002176
:101730002020FEF7DCFE40F23F112120FEF7D7FE0D
:1017400000213020FEF7D3FE4FF483713120FEF7E5
:10175000CEFE00213220FEF7CAFE4FF40171352083
:1017600000E064E0FEF7C3FE41F20A613620FEF7B6
:10177000BEFE40F207713720FEF7B9FE4FF48371C9
:101780003820FEF7B4FE40F207713920FEF7AFFEB5
:1017900040F202413C20FEF7AAFE40F60F413D20F8
:1017A000FEF7A5FE00215020FEF7A1FEEF215120FB
:1017B000FEF79DFE00215220FEF799FE40F23F11F8
:1017C0005320FEF794FE4FF41C516020FEF78FFE6D
:1017D00001216120FEF78BFE00216A20FEF787FEC3
:1017E00000218020FEF783FE00218120FEF77FFE8E
:1017F00000218220FEF77BFE00218320FEF777FE8A
:1018000000218420FEF773FE00218520FEF76FFE85
:1018100010219020FEF76BFE4FF4C0619220FEF77E
:1018200066FE40F233110720FEF761FE84E489482A
:10183000808845F2084188427ED14FF480710120B2
:10184000FEF755FE4FF4E0610220FEF750FE41F234
:1018500030010320FEF74BFE00210420FEF747FE77
:1018600040F207210820FEF742FE00210920FEF782
:101870003EFE00210A20FEF73AFE00210C20FEF772
:1018800036FE00210D20FEF732FE00210F20FEF76C
:101890002EFE142001F0E4F841F2B0611020FEF7B2
:1018A00026FE01211120FEF722FE01211720FEF75E
:1018B0001EFE4FF49C711220FEF719FE4FF40061DA
:1018C0001320FEF714FE09212920FEF710FE09213E
:1018D0002A20FEF70CFE0021A420FEF708FE0021BE
:1018E0005020FEF704FEEF215120FEF700FE0021FC
:1018F0005220FEF7FCFD40F23F115320FEF7F7FDAA
:101900004FF41C516020FEF7F2FD01216120FEF72B
:10191000EEFD00216A20FEF7EAFD00218020FEF79F
:10192000E6FD00218120FEF7E2FD00218220FEF786
:10193000DEFD0021832000E023E0FEF7D8FD00213A
:101940008420FEF7D4FD00218520FEF7D0FD132171
:101950009020FEF7CCFD00219220FEF7C8FD032168
:101960009320FEF7C4FD4FF488719520FEF7BFFD6C
:1019700040F273110720FEF7BAFD322001F070F833
:10198000B8E43448808841F2055188427ED1002174
:101990000720FEF7ACFD322001F062F84FF48E71A3
:1019A0001220FEF7A4FD0121A420FEF7A0FD0F21C7
:1019B0000820FEF79CFD08210A20FEF798FD08216B
:1019C0000D20FEF794FD40F207713020FEF78FFDE9
:1019D00007213120FEF78BFD40F203613220FEF734
:1019E00086FD4FF4E0613320FEF781FD40F20221D5
:1019F0003420FEF77CFD02213520FEF778FD41F60C
:101A00000F713620FEF773FD40F207713720FEF7A5
:101A10006EFD00213820FEF76AFD00213920FEF717
:101A200066FD40F207713A20FEF761FD00213B2080
:101A3000FEF75DFD07213C20FEF759FD00213D200A
:101A4000FEF755FD322001F00BF801210720FEF7CB
:101A50004EFD01E0AC00002001211720FEF747FDFC
:101A6000322000F0FDFF4FF4BD511020FEF73FFD86
:101A700040F217211120FEF73AFD4FF48F7112202A
:101A8000FEF735FD4FF47061132000E097E0FEF79C
:101A90002EFD00212A20FEF72AFD0A212920FEF72B
:101AA00026FD4FF49F711220FEF721FD00215020EA
:101AB000FEF71DFDEF215120FEF719FD00215220F8
:101AC000FEF715FD40F23F115320FEF710FD4FF4D5
:101AD0001C516020FEF70BFD01216120FEF707FD80
:101AE00000216A20FEF703FD00218020FEF7FFFCA5
:101AF00000218120FEF7FBFC00218220FEF7F7FC8D
:101B000000218320FEF7F3FC00218420FEF7EFFC88
:101B100000218520FEF7EBFC13219020FEF7E7FC67
:101B20004FF440719220FEF7E2FC05219320FEF76E
:101B3000DEFC00219520FEF7DAFC00219720FEF75D
:101B4000D6FC00219820FEF7D2FC4FF480710120D2
:101B5000FEF7CDFC4FF4E0610220FEF7C8FC41F235
:101B600038010320FEF7C3FC00210420FEF7BFFC70
:101B700000210C20FEF7BBFC00210F20FEF7B7FC74
:101B800000212020FEF7B3FC00212120FEF7AFFC4E
:101B900021210720FEF7ABFC142000F061FF61213A
:101BA0000720FEF7A4FC142000F05AFF40F2731146
:101BB0000720FEF79CFC142000F052FF95E4FE483D
:101BC00080884BF2055188427ED100210846FEF7FD
:101BD0008EFC00210846FEF78AFC00210846FEF72D
:101BE00086FC00210846FEF782FC0121A420FEF7B6
:101BF0007EFC142000F034FF4FF41C516020FEF7EF
:101C000076FC40F202210820FEF771FC4FF40571CA
:101C10003020FEF76CFC43F215713120FEF767FCB3
:101C200040F204613220FEF762FC40F61661332078
:101C3000FEF75DFC42F211213420FEF758FC4FF410
:101C4000A8513520FEF753FC48F207513620FEF725
:101C50004EFC41F207413720FEF749FC41F20341B7
:101C60003820FEF744FC20213920FEF740FC1A21E1
:101C70009020FEF73CFC00211020FEF738FC0721E5
:101C80001120FEF734FC00211220FEF730FC002169
:101C90001320FEF72CFC142000F0E2FE4FF4E66166
:101CA0001020FEF724FC40F237111120FEF71FFC34
:101CB000142000F0D5FE4FF4DC711220FEF717FC63
:101CC000142000F0CDFE00E083E04FF4706113209B
:101CD000FEF70DFC80212A20FEF709FC482129206F
:101CE000FEF705FC142000F0BBFE4FF480710120CC
:101CF000FEF7FDFB4FF4E0610220FEF7F8FB41F236
:101D000038010320FEF7F3FB40F202210820FEF722
:101D1000EEFB00210A20FEF7EAFB00210C20FEF773
:101D2000E6FB00210D20FEF7E2FB30210E20FEF73E
:101D3000DEFB00215020FEF7DAFBEF215120FEF7F9
:101D4000D6FB00215220FEF7D2FB40F23F11532078
:101D5000FEF7CDFB4FF41C516020FEF7C8FB0121BC
:101D60006120FEF7C4FB00216A20FEF7C0FB1121B1
:101D70009020FEF7BCFB4FF4C0619220FEF7B7FB4A
:101D800040F202419320FEF7B2FB02219420FEF7BD
:101D9000AEFB142000F064FE01210720FEF7A7FB34
:101DA000142000F05DFE61210720FEF7A0FB40F249
:101DB00073110720FEF79BFB00212020FEF797FB05
:101DC00000212120FEF793FB22210020FEF78FFB4C
:101DD00013E3794880884CF2055188427ED1002176
:101DE0000846FEF784FB00210846FEF780FB14201E
:101DF00000F036FE00210846FEF779FB0021084678
:101E0000FEF775FB00210846FEF771FB002108462E
:101E1000FEF76DFB0121A420FEF769FB142000F002
:101E20001FFE4FF41C516020FEF761FB40F60601D7
:101E30000820FEF75CFB40F203713020FEF757FBF1
:101E400001213120FEF753FB04213220FEF74FFB26
:101E50004FF481713320FEF74AFB4FF44071342078
:101E6000FEF745FB40F203113520FEF740FB1F2132
:101E70003620FEF73CFB40F203713720FEF737FBBC
:101E800001213820FEF733FB04213920FEF72FFB18
:101E900015219020FEF72BFB4FF482611020FEF7F6
:101EA00026FB40F247211120FEF721FB4FF4DE71A3
:101EB0001220FEF71CFB4FF460611320FEF717FBA6
:101EC000782000F0CDFD4FF480710120FEF70FFB6C
:101ED0004FF400710220FEF70AFB00E050E041F2EF
:101EE00030010320FEF703FB08210A20FEF7FFFA6A
:101EF00000210C20FEF7FBFA20210E20FEF7F7FA56
:101F000000210F20FEF7F3FA00212020FEF7EFFA60
:101F100000212120FEF7EBFA3D212A20FEF7E7FA07
:101F2000142000F09DFD2D212920FEF7E0FA00216C
:101F30005020FEF7DCFA4DF2EF015120FEF7D7FA00
:101F400000215220FEF7D3FA40F23F115320FEF752
:101F5000CEFA00216120FEF7CAFA00216A20FEF7BE
:101F6000C6FA4FF440719220FEF7C1FA0521932082
:101F7000FEF7BDFA4FF480710720FEF7B8FA3CE295
:101F80000D48808848F6891188427DD101210020C2
:101F9000FEF7ADFA4AF6A4010320FEF7A8FA0021E5
:101FA0000C20FEF7A4FA40F60C010D20FEF79FFA74
:101FB0004FF42C510E2001E0AC000020FEF797FA00
:101FC000B0211E20FEF793FA42F63F310120FEF7C2
:101FD0008EFA4FF4C0610220FEF789FA002110202A
:101FE000FEF785FA46F278011120FEF780FA00210B
:101FF0000520FEF77CFA00210620FEF778FA4EF65F
:102000001C711620FEF773FA03211720FEF76FFAF2
:1020100040F233210720FEF76AFA00210B20FEF779
:1020200066FA00210F20FEF762FA00214120FEF738
:102030005EFA00214220FEF75AFA00214820FEF7FE
:1020400056FA40F23F114920FEF751FA00214A208A
:10205000FEF74DFA00214B20FEF749FA4FF46F418D
:102060004420FEF744FA00214520FEF740FA40F2F2
:102070003F114620FEF73BFA40F207713020FEF791
:1020800036FA4FF4017100E040E03120FEF72FFAFC
:102090004FF401713220FEF72AFA40F20251332048
:1020A000FEF725FA40F207513420FEF720FA4FF4EC
:1020B00001713520FEF71BFA4FF401713620FEF74F
:1020C00016FA40F202513720FEF711FA40F20231BF
:1020D0003A20FEF70CFA40F202313B20FEF707FAF5
:1020E00000212320FEF703FA00212420FEF7FFF948
:1020F0004FF400412520FEF7FAF900214F20FEF7AA
:10210000F6F900214E20FEF7F2F976E1F7488088D3
:1021100044F2315188427DD101210020FEF7E7F9D8
:102120000A2000F09DFC41F228611020FEF7DFF943
:102130000E211220FEF7DBF940F639211320FEF7BD
:10214000D6F90A2000F08CFC40211120FEF7CFF9CF
:1021500050211520FEF7CBF90A2000F081FC1E214A
:102160001220FEF7C4F90A2000F07AFC4FF4B151B6
:102170001020FEF7BCF942F639211320FEF7B7F91B
:102180000A2000F06DFC4FF480710120FEF7AFF9DA
:102190004FF440710220FEF7AAF941F23801032002
:1021A000FEF7A5F940F202210820FEF7A0F9082168
:1021B0000A20FEF79CF900213020FEF798F940F242
:1021C00002413120FEF793F94FF483713220FEF77C
:1021D0008EF940F203513320FEF789F94FF48271F2
:1021E0003420FEF784F940F201313520FEF77FF903
:1021F00040F207713620FEF77AF940F205313720B8
:10220000FEF775F94FF402713820FEF770F940F6C9
:102210000B7100E03CE03920FEF769F90221412012
:10222000FEF765F94FF41C516020FEF760F90121BB
:102230006120FEF75CF94FF404719020FEF757F926
:102240004FF485719220FEF752F904219320FEF796
:102250004EF94FF48071A020FEF749F901210720C3
:10226000FEF745F921210720FEF741F92321072038
:10227000FEF73DF933210720FEF739F940F233111B
:102280000720FEF734F90021A020FEF730F9B4E072
:102290009648808844F235518842F8D13021152083
:1022A000FEF725F910219A20FEF721F920211120AF
:1022B000FEF71DF943F228411020FEF718F902211C
:1022C0001220FEF714F941F238011320FEF70FF93E
:1022D000282000F0C5FB12210846FEF708F9282047
:1022E00000F0BEFB43F220411020FEF700F943F25C
:1022F00038011320FEF7FBF8462000F0B1FB002167
:102300003020FEF7F4F840F202413120FEF7EFF8FA
:1023100040F207313220FEF7EAF84FF441713320E2
:10232000FEF7E5F804213420FEF7E1F840F2014120
:102330003520FEF7DCF840F207713620FEF7D7F8BB
:1023400040F205313720FEF7D2F84FF4C261382051
:10235000FEF7CDF84FF4C2613920FEF7C8F84FF40C
:1023600080710120FEF7C3F84FF440710220FEF7A0
:10237000BEF841F230010320FEF7B9F840F608013B
:102380000820FEF7B4F808210A20FEF7B0F84FF451
:102390001C516020FEF7ABF801216120FEF7A7F881
:1023A0004FF49F719020FEF7A2F84FF480719220B5
:1023B000FEF79DF84FF480719320FEF798F84FF4E4
:1023C0004051A020FEF793F81021A320FEF78FF8CC
:1023D00001210720FEF78BF821210720FEF787F85F
:1023E00023210720FEF783F833210720FEF77FF82B
:1023F00040F233110720FEF77AF80020FEF7C8FA02
:1024000001203B4908604FF6FF70FEF738FB1FB014
:1024100000BD2DE9F04F05460E4617469846DDF8FB
:1024200024A04FF0000B781B401C1FFA80FB3446A1
:1024300013E021462846FEF787F8FEF768F84FF0CC
:10244000000906E05046FEF74AF809F101001FFABC
:1024500080F9D945F6DB601C84B24445E9DDBDE86E
:10246000F08F2DE9F84F07460D4690469946DDF866
:1024700028B0A8EB0700401C80B20090A9EB050033
:10248000401C1FFA80FA002415E0281981B2384652
:10249000FEF75AF8FEF73BF8002607E004FB0A6057
:1024A0003BF8100013490880701C86B200988642E1
:1024B000F4DB601C84B25445E7DBBDE8F88F2DE9FE
:1024C000FF4F84B081468A46002003900290069810
:1024D000A0EB09050798A0EB0A06CDF80490CDF80B
:1024E00000A0002D08DD01270CE00000AC0000205A
:1024F00088024242000010600DB9002702E04FF050
:10250000FF376D42002E02DD4FF0010806E016B9DC
:102510004FF0000802E04FF0FF387642B54201DD8F
:102520002C4600E034464FF0000B21E0009A91B2B7
:10253000019A90B2FEF7DEF90398284403900298BE
:10254000304402900398A04205DD0398001B0390DD
:102550000198384401900298A04205DD0298001BC2
:1025600002900098404400900BF101001FFA80FB9C
:10257000601C8345DADD08B0BDE8F08FF0B5044695
:102580000D4616461F462B46324629462046FFF783
:1025900096FF3B46224629462046FFF790FF3B46E2
:1025A000324639462046FFF78AFF3B4632462946E7
:1025B0003046FFF784FFF0BD2DE9F04306460F4695
:1025C0009046002445460320A0EB48093CE07A1BD6
:1025D00091B2321990B2FEF78DF93A1B91B272198D
:1025E00090B2FEF787F93A1991B2721990B2FEF7DC
:1025F00081F97A1991B2321990B2FEF77BF97A1902
:1026000091B2321B90B2FEF775F93A1991B2721B72
:1026100090B2FEF76FF97A1B91B2321B90B2FEF7BF
:1026200069F93A1B91B2721B90B2FEF763F9641C10
:10263000B9F1000F03DAA000801D814404E0601BA3
:1026400080000A3081446D1EAC42C0DDBDE8F083DD
:102650002DE9F84F05460F4690461E460097C5489F
:10266000B0F80090A8F1200000F0FF080A980028B8
:102670004ED1002449E00C2E07D108EB4800BE499A
:1026800001EB800010F804A004E0BC4800EB081047
:1026900010F804A04FF0000B31E00AF0800018B1F0
:1026A000B448A0F8009003E0B5480088B14908801C
:1026B00039462846FEF71EF94FEA4A604FEA106A8B
:1026C000781C87B2AF480088A84204DCA948A0F86B
:1026D0000090BDE8F88F0098381AB0420BD1009FE7
:1026E000681C85B2A7480088A84203DCA148A0F86E
:1026F0000090EEE706E00BF1010000F0FF0BBBF1EC
:10270000080FCADB00BF601CC4B2B442B3DB44E0B4
:10271000002440E00C2E07D108EB4800964901EB5D
:10272000800010F804A004E0944800EB081010F8B2
:1027300004A04FF0000B28E00AF0800018B13946E1
:102740002846FEF7D7F84FEA4A604FEA106A781C2D
:1027500087B28C484088A84203DC8648A0F80090E5
:10276000B7E70098381AB0420BD1009F681C85B2B9
:1027700084480088A84203DC7E48A0F80090A8E7BF
:1027800006E00BF1010000F0FF0BBBF1080FD3DBFB
:1027900000BF601CC4B2B442BCDB7648A0F8009015
:1027A00000BF96E710B50246012000E050430B0041
:1027B000A1F10104E1B2F9D110BD2DE9FF4F81B0C3
:1027C000074691461E460E9D4FF0000A002439E050
:1027D000301B401EC1B20A20FFF7E4FFB9FBF0F046
:1027E0000A21B0FBF1F201FB1208BAF1000F16D179
:1027F000701EA04213DDB8F1000F0ED10020AB46D1
:1028000005EBDB71491001FB0471009088B22B4687
:1028100020220299FFF71CFF12E04FF0010A00206E
:10282000AB4605EBDB71491001FB0471009088B2E7
:1028300008F13001CAB22B460299FFF709FF00BF29
:10284000601CC4B2B442C3DB05B0BDE8F08F2DE913
:10285000FF4F82B0064692461F46DDE90F48002032
:10286000019000254DE0781B401EC1B20A20FFF701
:1028700099FFBAFBF0F00A21B0FBF1F201FB12095B
:10288000019850BB781EA84227DDB9F1000F22D174
:1028900008F0800078B108F00100A34604EBDB717A
:1028A000491001FB0561009088B22346302203994C
:1028B000FFF7CEFE0EE008F00100A34604EBDB714B
:1028C000491001FB0561009088B22346202203993C
:1028D000FFF7BEFE13E00120019008F00100A346BF
:1028E00004EBDB71491001FB0561009088B209F12E
:1028F0003001CAB223460399FFF7AAFE00BF681C45
:10290000C5B2BD42AFDB06B0BDE8F08F2DE9F84798
:1029100004460D4690469946DDE9096704F0FF0A32
:1029200008EB04001FFA80F809EB05001FFA80F994
:1029300016E0444502DB5446A81985B24D4500DB3C
:1029400014E0002000903A78334629462046FFF7ED
:102950007FFE304606EBD07104EB61018CB27F1C28
:1029600038787E2802DC38782028E2DA00BFBDE81B
:10297000F8870000020000200C460008804A00088A
:1029800004000020AC0000201CB501208DF80400DC
:1029900000208DF8060002208DF805008DF8070054
:1029A0004FF4E06000906946094800F0BDFD1CBD91
:1029B000704710B500F076F84FF4C06000F0D2F91F
:1029C00000F018F800F0B2F8FFF7DEFF002010BDAD
:1029D0000000024070B504460D46E1B22B4801F0FC
:1029E00028FA00BF4021294801F0D3FA0028F9D085
:1029F000204670BD30B526480068264AB0FBF2F18B
:102A0000481EB0F1807F01D301201BE0481E4FF02B
:102A1000E022506150170F22002807DA13071D0E1D
:102A20001D4B00F00F04241F1D5503E013071C0E5F
:102A30001A4B1C5400BF00204FF0E0229061072089
:102A40001061002008B100BFFEE730BD01B5144998
:102A50000098086000BF124800680028FBD108BD3C
:102A600001B54FF47A71009848430D49086000BFE2
:102A70000B4800680028FBD108BD0948006820B158
:102A800007480068401E064908607047004800403B
:102A90001C00002040420F0018ED00E000E400E0C0
:102AA0000800002008B500F0FFFD012000F01AFE2C
:102AB00000F03DFE012825D1002000F08BFE022011
:102AC00000F0B4FE072002234FF4A8720821009002
:102AD000C80400F06FFE002000F0B8FE002000F0F7
:102AE000BFFE002000F0C6FE012000F073FE00BF14
:102AF000392000F0FEFD0028FAD000BF00F0A0FE53
:102B00000828FBD101211F2000F054FF01210648B5
:102B100000F083FF0121084600F090FF01218803A7
:102B200000F08CFF08BD00000580040000B587B0F0
:102B30004FF48060059002208DF8180005A97E48AA
:102B400000F0F2FC4FF40060059002208DF81800B0
:102B500005A9794800F0E8FC0021784801F03EF929
:102B600007220A21744800F06AFD07220B217248EF
:102B700000F065FD4FF4E13001900020ADF8080051
:102B8000ADF80A00ADF80C00ADF810000C20ADF85F
:102B90000E0001A9694801F099F8012240F225517F
:102BA000664801F0D1F927208DF8000008208DF843
:102BB00001008DF8020001208DF80300684600F046
:102BC000D6F801215D4801F009F907B000BDF0B564
:102BD00003460D461646002729460A2E03D000203C
:102BE00008702846F0BD33B9302001F8010B0020F1
:102BF00008702846F6E7002B03DA2D2001F8010BB8
:102C00005B4242F210720DE093FBF2F404B937B16B
:102C100004F1300001F8010B04FB123301270A20F4
:102C200092FBF0F2002AEFDC002008702846D9E77A
:102C30000FB470B586B006460CA8019073E00B98EF
:102C400000785C281CD10B98401C0B9000786E28F3
:102C500009D072280FD10D21304601F0EAF80B9807
:102C6000401C0B900BE00A21304601F0E2F80B9873
:102C7000401C0B9003E00B98401C0B9000BF4BE0F6
:102C80000B980078252840D10B98401C0B900078B9
:102C9000642818D0732833D1019810C801900BE034
:102CA0002178304601F0C5F800BF4021304601F0E0
:102CB00070F90028F9D0641C20780028F0D10B9816
:102CC000401C0B9020E0019820C801900A2202A924
:102CD0002846FFF77CFF02AC0BE02178304601F07C
:102CE000A8F800BF4021304601F053F90028F9D080
:102CF000641C20780028F0D10B98401C0B9003E056
:102D00000B98401C0B9000BF06E00B9810F8011BBD
:102D10000B90304601F08DF800BF4021304601F0A5
:102D200038F90028F9D00B980078002887D106B030
:102D300070BC5DF814FB0000000402400048004035
:102D40000648804706480047FEE7FEE7FEE7FEE745
:102D5000FEE7FEE7FEE7FEE7FEE7FEE729410008A3
:102D60008901000832490143324A1160704770B549
:102D7000002100230F22C4781CB32E4C246804F4D5
:102D8000E064C4F5E064C4F30721C1F10404E3B2D4
:102D90000A4144789C40E1B28478144021430C07F6
:102DA000210E254C05786155047804F01F05012497
:102DB000AC4005786D11AD0005F1E025C5F8004186
:102DC00009E0047804F01F050124AC401B4D06788F
:102DD000761145F8264070BD194A0A400243154B4A
:102DE0001B1F1A60704739B1124A121D1268024344
:102DF000104B1B1D1A6006E00E4A121D126882431A
:102E00000C4B1B1D1A607047042808D14FF0E021BD
:102E1000096941F004014FF0E022116107E04FF031
:102E2000E021096921F004014FF0E02211617047AF
:102E30000000FA050CED00E000E400E080E100E0B5
:102E400080FFFF1F30B943F2DB028100A1F1C041D6
:102E50000A6005E043F2D2028100A1F1C0410A609C
:102E60006FF07042411C8900A1F1C0410A608100ED
:102E7000A1F1C041C1F804217047D0E9011211430A
:102E8000C2681143026911434269114382691143C7
:102E9000C2691143026A1143426A1143826A1143B3
:102EA000C26A1143026B114302689200A2F1C04250
:102EB0001160816808290BD101688900A1F1C04126
:102EC000096841F0400201688900A1F1C0410A602F
:102ED000416B0968426B526841EA0211426B926889
:102EE00041EA0221426B928941EA0241426B128A15
:102EF00041EA0251426B127D41EA0261426B9269E2
:102F000011430268521C9200A2F1C0421160C16AD2
:102F1000B1F5804F1BD1816B0968826B526841EA21
:102F20000211826B926841EA0221826B128A41EAA5
:102F30000251826B127D41EA0261826B92691143F8
:102F400002689200A2F1C042C2F8041107E06FF0DB
:102F5000704201688900A1F1C041C1F804217047A5
:102F6000002101600221416000218160C160016196
:102F700041618161C16101624FF480514162490048
:102F800081620021C16201630F21426B1160426BBB
:102F90005160FF21426B91600F21426BD160426B07
:102FA0001161426B51610021426B91610F21826B73
:102FB0001160826B5160FF21826B91600F21826BE7
:102FC000D160826B1161826B51610021826B9161D2
:102FD000704751B18200A2F1C042126842F0010371
:102FE0008200A2F1C042136009E08200A2F1C04257
:102FF0001268F94B1A408300A3F1C0431A6070476E
:1030000010280AD118214FF0204211664021516644
:103010004FF0FC319166D16610E01821EF4A116043
:1030200040214FF02042C2F884104FF0FC31EB4AAF
:10303000083211604FF02042C2F88C10704730B552
:10304000002100220023446844F0080485682C43D2
:10305000C5682C4305692C43456944EA45248569C4
:1030600044EA4531C4692468C5696D6844EA0524A9
:10307000C5692D8944EA0544C5692D7B44EA05628A
:10308000046A2468056A6D6844EA0524056A2D8986
:1030900044EA0544056A2D7B44EA05630468102C64
:1030A00005D14FF020442166A266E36608E0CB4CD0
:1030B00021604FF02044C4F88820C84C0C342360B1
:1030C00030BD10210160002141608160C16001615B
:1030D00041618161FC21C2691160C2695160C269AC
:1030E0009160C269D160026A1160026A5160026A2D
:1030F0009160026AD160704799B1102808D14FF0F1
:103100002042126E42F004024FF020431A661DE086
:10311000B24A126842F004024FF02043C3F8802004
:1031200014E0102809D14FF02042126EAA4BDB1E8A
:103130001A404FF020431A6608E0A84A1268A64BCE
:10314000DB1E1A404FF02043C3F88020704799B12E
:10315000102808D14FF02042126E42F040024FF08A
:1031600020431A661DE09D4A126842F040024FF06B
:103170002043C3F8802014E0102809D14FF02042EA
:10318000126E954B3F3B1A404FF020431A6608E001
:10319000924A1268904B3F3B1A404FF02043C3F8CD
:1031A0008020704701460020102903D14FF02042B3
:1031B000506F02E0894A143210687047182087491E
:1031C0002031086000200906C1F8A4004FF0FC304F
:1031D000824928310860091D0860091D0860704790
:1031E000016841F01001426841EA4221826841EAE7
:1031F00042317A4A20321160C1680968C268526857
:1032000041EA0221C268128941EA0241C268127B86
:1032100041EA0261714A2832116001690968026954
:10322000526841EA02210269128941EA02410269B7
:10323000127B41EA0261694A2C32116041690968D6
:103240004269526841EA02214269128941EA024117
:103250004269127B41EA02614FF02042C2F8B0108D
:1032600070470021016041608160FC21C2681160EB
:10327000C2685160C2689160C268D1600269116021
:1032800002695160026991600269D160426911600E
:1032900042695160426991604269D160704748B1AA
:1032A0004E492031096841F004014FF02042C2F834
:1032B000A01009E0494920310968474AD21E11404F
:1032C0004FF02042C2F8A010704710B5F2B110289C
:1032D00007D14FF020435B6E0B434FF020446366F1
:1032E00032E0B0F5807F08D13C4B1B1D1B680B43BF
:1032F0004FF02044C4F8843026E0384B24331B6858
:103300000B434FF02044C4F8A4301DE0102807D12F
:103310004FF020435B6E8B434FF02044636613E015
:10332000B0F5807F08D12D4B1B1D1B688B434FF0E0
:103330002044C4F8843007E0284B24331B688B43B7
:103340004FF02044C4F8A43010BD10B50246002050
:103350000023102A03D14FF02044636E09E0B2F538
:10336000807F03D11D4C241D236802E01B4C2434B4
:10337000236803EA01040CB1012000E0002010BD25
:10338000102807D14FF02042526E8A434FF020435D
:103390005A6613E0B0F5807F08D1104A121D1268FA
:1033A0008A434FF02043C3F8842007E00B4A2432BD
:1033B00012688A434FF02043C3F8A420704770B5C9
:1033C00002460020002300240025102A08D14FF0D7
:1033D0002046736E0DE00000FEFF0F00800000A08D
:1033E000B2F5807F02D1184E336802E0164E2036C7
:1033F000336803EA010403EAD10514B10DB10120D9
:1034000000E0002070BD102808D14FF02042526E1D
:1034100022EAD1024FF020435A6614E0B0F5807FD3
:1034200008D1094A126822EAD1024FF02043C3F8BA
:10343000842008E0044A2032126822EAD1024FF0C8
:103440002043C3F8A4207047840000A010B50446B0
:103450008C48844208D10121084600F000FB00217D
:10346000012000F0FCFA5EE08748844208D1012187
:10347000022000F0F4FA0021022000F0F0FA52E0FD
:103480008248844208D10121042000F0E8FA00219A
:10349000042000F0E4FA46E07D48844208D101218E
:1034A000082000F0DCFA0021082000F0D8FA3AE009
:1034B0007848844208D10121102000F0D0FA002180
:1034C000102000F0CCFA2EE07348844208D101218C
:1034D000202000F0C4FA0021202000F0C0FA22E0F1
:1034E0006E48844208D10121402000F0B8FA002142
:1034F000402000F0B4FA16E06948844208D1012166
:10350000802000F0ACFA0021802000F0A8FA0AE048
:103510006448844207D10121801500F0A0FA0021FF
:10352000A01500F09CFA10BDF0B50A46002100235A
:10353000002400BF3DE0012505FA01F3156805EA06
:1035400003049C4234D105684F000326BE40B543B6
:10355000056015794E00B54006683543056015795C
:10356000012D02D01579022D16D185684F00032652
:10357000BE40B543856055794E00B54086683543F9
:103580008560456801268E40B5434560456896795B
:103590008E40B6B235434560C5684F000326BE4035
:1035A000B543C560D5794E00B540C6683543C560A2
:1035B000491C1029BFD3F0BD4FF6FF7101600021F7
:1035C000017141718171C171704708B54FF480324A
:1035D0000092009A0A430092009AC261C161009A67
:1035E000C261C2690092C269009208BD0246002011
:1035F00013690B400BB1012000E000207047014629
:10360000086980B270470246002053690B400BB135
:10361000012000E0002070470146486980B27047F1
:1036200001837047418370470AB1018300E0418301
:1036300070474161704742694A4042617047F0B546
:10364000002300244D07ED0E02FA05F3CE1000F121
:10365000200555F826504E07F70E0F26BE40B543FD
:10366000CF1000F1200646F82750CE1000F12005BB
:1036700055F8265045EA0304CE1000F1200545F820
:103680002640F0BD00000240000402400008024055
:10369000000C0240001002400014024000180240DA
:1036A000001C024000200240FA48006840F001007F
:1036B000F84908600020F74908310860F5480068BB
:1036C000F5490840F3490860F448091D0860081FDF
:1036D000006820F48020091F08600020ED490C31AB
:1036E000086070470021EB4A921C11701146087067
:1036F000704710B501460022002300204A11012A1C
:1037000002D1E44C236808E0022A03D1E14C703472
:10371000236802E0DF4C7434236801F01F020124A7
:1037200094401C400CB1012000E0002010BD38B5D1
:10373000002000900024002500BF3120FFF7D9FFB2
:1037400005460098401C00900098B0F5A06F01D08D
:10375000002DF2D03120FFF7CCFF08B1012400E0AA
:103760000024204638BD01460020CA4A106820F0D7
:10377000F80040EAC10010607047C949086070470E
:103780000021C44A703211701170012802D004283F
:103790000AD104E00121BF4A7032117005E0052111
:1037A000BC4A7032117000E000BF00BF7047BD49D5
:1037B0000860704770B5049C41EA82150126C6EB8B
:1037C000530645EA0645054345EA0465B14E361DF4
:1037D000356070BDB24908667047820142EA0172E5
:1037E000AC4B84331A607047AD4988667047AC496A
:1037F000C864704702460020A64B0833186820F0C2
:10380000EC6042EA01031843A24B0833186070478A
:10381000024600209F4B0833186820F0784042EAA7
:10382000010318439B4B0833186070470146002082
:10383000984A0832106820F003000843106070476F
:1038400094480830006800F00C00704701460020E2
:10385000904A0832106820F0F0000843106070476A
:10386000014600208B4A0832106820F4E0500843DB
:103870001060704701460020864A0832106820F424
:10388000604040EAC10010607047F0B5002100229E
:1038900000240225002602237E4F08373F6807F0E8
:1038A0000C0121B1042905D0082937D105E07E4F4C
:1038B000076036E07D4F076033E0764F3F1D3F687D
:1038C000C7F38056734F3F1D3F6807F03F036EB14B
:1038D000764FB7FBF3F7DFF8BCC10CF1040CDCF852
:1038E00000C0CCF3881C07FB0CF40CE06E4FB7FB58
:1038F000F3F7DFF8A0C10CF1040CDCF800C0CCF346
:10390000881C07FB0CF4634F3F1D3F68C7F301475A
:103910007F1C7D00B4FBF5F7076002E0624F076093
:1039200000BF00BF5B4F08373F6807F0F00109098F
:103930005F4F7A5C0768D7404760564F08373F684B
:1039400007F4E051890A5A4F7A5C4768D74087608C
:10395000504F08373F6807F46041490B544F7A5C79
:103960004768D740C760F0BD002100F44072B2F54F
:10397000407F0AD1474A0832116821F4F8114D4AB4
:1039800002401143434A08321160424A70321268C1
:10399000C0F30B031A433F4B70331A607047414921
:1039A0004439086070473F494039086070474249D0
:1039B0000860704739B1374A303212680243354BDC
:1039C00030331A6006E0334A303212688243314B9A
:1039D00030331A60704739B12E4A343212680243CC
:1039E0002C4B34331A6006E02A4A34321268824380
:1039F000284B34331A60704739B1264A383212687E
:103A00000243244B38331A6006E0224A38321268E7
:103A10008243204B38331A60704739B11D4A403217
:103A2000126802431B4B40331A6006E0194A4032C9
:103A300012688243174B40331A60704739B1154AF8
:103A4000443212680243134B44331A6006E0114AB1
:103A50004432126882430F4B44331A60704739B1C5
:103A60000C4A1032126802430A4B10331A6006E007
:103A7000084A103212688243064B10331A607047AE
:103A8000E1B1044A143212680243024B14331A6043
:103A900019E0000000380240FFFFF6FE103000245D
:103AA00000004742800E47420024F40000127A00D2
:103AB0000C000020FFFCFF0F5C0147425B4A1268CC
:103AC00082435A4B1A60704739B1584A121D126826
:103AD0000243564B1B1D1A6006E0544A121D126821
:103AE0008243524B1B1D1A60704739B14F4A0C324A
:103AF000126802434D4B0C331A6006E04B4A0C32FD
:103B000012688243494B0C331A60704739B1474AF7
:103B1000103212680243454B10331A6006E0434AE4
:103B2000103212688243414B10331A60704739B12A
:103B30003E4A3C32126802433C4B3C331A6006E07A
:103B40003A4A3C3212688243384B3C331A60704721
:103B500039B1364A403212680243344B40331A605E
:103B600006E0324A403212688243304B40331A60DA
:103B7000704739B12D4A4432126802432B4B44330B
:103B80001A6006E0294A443212688243274B4433C4
:103B90001A60704739B1254A4C3212680243234BF0
:103BA0004C331A6006E0214A4C32126882431F4BA4
:103BB0004C331A60704739B11C4A503212680243C4
:103BC0001A4B50331A6006E0184A5032126882438A
:103BD000164B50331A60704739B1144AD21F12780D
:103BE0000243124BDB1F1A7006E0104AD21F1278F4
:103BF00082430E4BDB1F1A7070470C486030006820
:103C000040F080700949603108607047014600202B
:103C1000064A083A12680A400AB1012000E0002072
:103C200070470249891F087070470000143802402D
:103C300010B50446F748844208D101211020FFF74F
:103C400065FF00211020FFF761FF3EE0F24884424B
:103C500009D101214804FFF748FF00214FF400304B
:103C6000FFF743FF31E0ED48844209D10121880488
:103C7000FFF73BFF00214FF48020FFF736FF24E0E1
:103C8000E748844209D10121C804FFF72EFF002133
:103C90004FF40020FFF729FF17E0E248844209D1E2
:103CA00001210805FFF721FF00214FF48010FFF7E5
:103CB0001CFF0AE0DC48844207D101212020FFF7E5
:103CC00025FF00212020FFF721FF10BD2DE9FF4730
:103CD00005460E460024A14600BFA046B08900B1AB
:103CE00000BF2C8A24F44054F08804432C82AC8911
:103CF00041F20C608443B0883189084371890843DC
:103D00000443AC81AC8A24F44074B0890443AC828F
:103D10006846FFF7BAFDBF48854202D0C2488542D7
:103D200002D1DDF80C9001E0DDF80890A88900F4DC
:103D3000004040B109EBC90000EB091031684900AF
:103D4000B0FBF1F707E009EBC90000EB091031689F
:103D50008900B0FBF1F76420B7FBF0F00401200903
:103D6000642101FB1078A88900F4004040B13220A2
:103D700000EBC800B0FBF1F000F00700044308E0DE
:103D8000322000EB08106421B0FBF1F000F00F00CE
:103D900004432C81BDE8FF874FF4165101600021D8
:103DA0008180C18001810C21418100218181704786
:103DB00010B502460020108A20F470600B884C88F1
:103DC00023438C882343CC8823431843108210BD9F
:103DD0000021018041808180C180704721B18289AA
:103DE00042F40052828104E082894DF6FF731A404A
:103DF00082817047028B02F47F420283028B0A4366
:103E00000283704721B1828942F40042828103E03B
:103E10008289C2F30E028281704721B1828A42F404
:103E20000062828204E0828A4FF2FF731A4082822B
:103E30007047C1F308028280704701468888C0F34A
:103E400008007047028A4FF6F0731A400282028A15
:103E50000A430282704721B1828942F002028281C4
:103E600004E082894FF6FD731A408281704782898F
:103E70004FF2FF731A40828182890A438281704720
:103E8000028A4FF6DF731A400282028A0A430282D4
:103E9000704721B1028A42F48042028204E0028A21
:103EA0004BF6FF731A4002827047818941F001018D
:103EB0008181704721B1828A42F00802828204E047
:103EC000828A4FF6F7731A4082827047028BD2B211
:103ED0000283028B42EA01220283704721B1828A67
:103EE00042F02002828204E0828A4FF6DF731A4099
:103EF0008282704721B1828A42F01002828204E0FD
:103F0000828A4FF6EF731A4082827047828A4FF698
:103F1000FB731A408282828A0A438282704721B1EF
:103F2000828A42F00202828204E0828A4FF6FD73A6
:103F30001A40828270471AB1838A0B43838202E05F
:103F4000838A8B4383827047F0B5034600240026A2
:103F50000025002040F66A17B94200D100BF18467C
:103F6000C1F3421401F01F06012707FA06F5012CE0
:103F700001D10C3004E0022C01D1103000E01430EB
:103F80001AB107682F43076002E00768AF43076074
:103F9000F0BD02460020B1F5007F00D100BF1388BC
:103FA0000B400BB1012000E00020704701F40072CB
:103FB000B2F5007F00D100BFCA430280704770B5E0
:103FC0000246002400230025002040F66A16B14274
:103FD00000D100BFC1F3421501F01F03012606FA0C
:103FE00003F3012D02D19689334006E0022D02D160
:103FF000168A334001E0968A33400C12012606FAF5
:1040000004F41688344013B10CB1012000E0002004
:1040100070BD000000100140004400400048004016
:10402000004C0040005000400014014010B5002238
:10403000002340F66A14A14200D100BF0A120124F5
:104040009440A3B2DC43048010BD00000CB50020F6
:10405000019000907248006840F480307049086018
:1040600000BF6F48006800F4003000900198401CC9
:104070000190009818B90198B0F5A06FF1D1684887
:10408000006800F4003010B10120009001E0002031
:1040900000900098012846D161484030006840F007
:1040A00080505F49403108605E48006840F48040BD
:1040B0005C4908605A48083000685949083108606E
:1040C0000846006840F4004008600846006840F474
:1040D000A05008605448091F0860081F006840F09D
:1040E0008070091F086000BF4D48006800F0007034
:1040F0000028F9D040F205604C4908604848083073
:10410000006820F00300464908310860084600684E
:1041100040F00200086000BF41480830006800F02D
:104120000C000828F8D10CBD10B53D48006840F0DF
:1041300001003B49086000203949083108603848CF
:1041400000683B490840364908603A48091D086044
:10415000081F006820F48020091F086000203049F3
:104160000C310860FFF772FF4FF0006032490860C1
:1041700010BD70B500200022022300240221284D2A
:1041800008352D6805F00C0020B1042806D0082859
:1041900034D107E0294D2A4E356033E0294D284EB1
:1041A00035602FE01E4D2D1D2D68C5F380541C4D2C
:1041B0002D1D2D6805F03F0154B1224DB5FBF1F5E1
:1041C000174E361D3668C6F3881605FB06F209E061
:1041D0001A4DB5FBF1F5124E361D3668C6F388163A
:1041E00005FB06F20E4D2D1D2D68C5F301456D1C16
:1041F0006B00B2FBF3F5124E356003E00F4D104E2D
:10420000356000BF00BF064D08352D68C5F30315A6
:104210000D4E705D0A4D2D68C540094E356070BD6C
:10422000003802400070004008544007003C024043
:10423000FFFFF6FE1030002408ED00E00024F4003B
:104240001C00002000127A00200000202DE9F05F01
:104250000546002092469B468846064681464024F5
:104260001BE0284641464746224600F02FF85346B9
:104270005A46C01A914110D311461846224600F002
:1042800016F82D1A67EB01084F462246012000213F
:1042900000F00DF817EB00094E41201EA4F10104B7
:1042A000DFDC484631462A464346BDE8F09F202AD7
:1042B00004DB203A00FA02F1002070479140C2F17D
:1042C000200320FA03F3194390407047202A04DBAF
:1042D000203A21FA02F00021704721FA02F3D0407F
:1042E000C2F120029140084319467047064C074D21
:1042F00006E0E06840F0010394E8070098471034B6
:10430000AC42F6D3FBF744FF705000089050000811
:104310000FB4054B10B503A9044A029800F018F831
:1043200010BC5DF814FB0000D52900083000002007
:1043300002E008C8121F08C1002AFAD1704770476E
:10434000002001E001C1121F002AFBD170470000CC
:104350002DE9FF4F8DB09B460F460446002606E030
:1043600025280BD05A460F999047641C761C20785C
:104370000028F5D111B03046BDE8F08F0025A846E1
:104380000122974900E0054314F8013F203B02FA5F
:1043900003F00842F7D120782E2817D114F8010F26
:1043A00045F004052A280ED06FF02F022078A0F1E6
:1043B000300109290AD808EB880102EB410100EB22
:1043C0000108641CF2E757F8048B641C20786C2801
:1043D0000DD004DC4C2812D06A2811D104E07428D6
:1043E0000DD07A280CD10AE045F4001507E0617879
:1043F00045F48015814202D1641C05F58015641CCA
:104400002278692A45D008DC002AB3D0582A67D020
:10441000632A10D0642A08D13BE0702A65D0732A41
:1044200013D0752A5AD0782A5AD010465A460F9976
:104430009047761CD1E017F8040B8DF8000000209F
:104440008DF80100E946012003E057F8049B4FF086
:10445000FF3069074FF0000501D40AE06D1C4545A7
:104460000DDA8542FADB19F805100029F6D106E0CD
:104470006D1C8542FCDB19F805100029F8D12E448B
:1044800004E019F8010B5A460F9990476D1EF8D2B7
:10449000A3E00A200021CDE90801C5F3025002285B
:1044A0000BD001CFC11700290DDA4FF0000CD0EB73
:1044B0000C006CEB01012D2308E0FF1D27F007071E
:1044C000F7E80201EFE72B0504D52B238DF8283000
:1044D00001233BE0EB0739D02023F7E70A2000E077
:1044E00010200021CDE9080107E01020002145F04F
:1044F0000405CDE908014FF00808C5F30250022871
:104500000FD001CF00214FF0000A2B071FD5702AD2
:104510000DD0DDE908C38CF0100C5CEA030C0CD064
:1045200015E0FF1D27F00707F7E80201EBE740223F
:104530008DF828204FF0010A0BE050EA010306D065
:1045400030238DF828308DF8292002239A46582AE6
:1045500004D024A20DF120090B9209E026A2F9E76C
:10456000DDE90823FFF772FE0B9B9B5C09F8013D18
:1045700050EA0102F4D1ADEB090020300890680741
:1045800001D44FF001080899884502DDA8EB01002D
:1045900000E000208046002506E00AA85A46405D5B
:1045A0000F9990476D1C761C5545F6DB04E03020D2
:1045B0005A460F999047761CB8F10001A8F10108FE
:1045C000F5DC05E019F8010B5A460F999047761C67
:1045D0000899481E08900029F4DC641CC7E6000016
:1045E00009280100303132333435363738396162C9
:1045F000636465660000000030313233343536378D
:1046000038394142434445460000000000000000A4
:104610000000000000000000000000003F4000001B
:1046200000000000000030004000300040000000AA
:1046300009000BC03D000BC03D00090018C024401C
:104640007FE0224031800000180024C01B000D8054
:104650003240018003801C4027401C8007400040FE
:1046600010006000000000000000000000000000DA
:1046700000001F80204040200000402020401F807C
:1046800000000000090006001F800600090000006D
:10469000040004003F8004000400000000100060DB
:1046A00000000000000000000400040004000400FA
:1046B00004000000000000400000000000000000B6
:1046C000002001C006003800400000001F8020408C
:1046D000204020401F800000000010403FC00040EC
:1046E0000000000018C02140224024401840000073
:1046F00010802040244024401B80000002000D0058
:1047000011003FC0014000003C8024402440244070
:10471000238000001F802440244034400380000098
:104720003000200027C03800200000001B802440FB
:10473000244024401B8000001C0022C02240224054
:104740001F80000000000000084000000000000082
:1047500000000000046000000000000000000400F1
:104760000A001100208040400900090009000900EA
:104770000900000000004040208011000A000400F1
:104780001800200023402400180000001F80204053
:10479000274029401F400000004007C039000F009B
:1047A00001C0004020403FC0244024401B80000046
:1047B0001F802040204020403080000020403FC02B
:1047C000204020401F80000020403FC024402E4059
:1047D00030C0000020403FC024402E0030000000C8
:1047E0000F001080204022403380020020403FC054
:1047F000040004003FC02040204020403FC0204033
:10480000204000000060202020203FC02000200029
:1048100020403FC024400B0030C0204020403FC01B
:1048200020400040004000C03FC03C0003C03C00AE
:104830003FC0000020403FC00C4023003FC020008C
:104840001F802040204020401F80000020403FC0AB
:1048500024402400180000001F802140214020E057
:104860001FA0000020403FC02440260019C0004087
:1048700018C02440244022403180000030002040F5
:104880003FC020403000000020003F80004000403A
:104890003F80200020003E0001C0070038002000BB
:1048A000380007C03C0007C038000000204039C075
:1048B000060039C0204000002000384007C03840C2
:1048C00020000000304021C02640384020C00000B9
:1048D000000000007FE04020402000000000700049
:1048E0000C000380004000000000402040207FE0DA
:1048F0000000000000002000400020000000000038
:104900000010001000100010001000100000000047
:10491000400000000000000000000280054005404B
:1049200003C0004020003FC004400440038000005A
:1049300000000380044004400640000000000380A3
:10494000044024403FC00040000003800540054073
:1049500003400000000004401FC024402440200009
:10496000000002E0055005500650042020403FC0E2
:104970000440040003C000400000044027C0004081
:104980000000000000100010041027E000000000EC
:1049900020403FC00140070004C0044020402040A8
:1049A0003FC000400040000007C0040007C00400F2
:1049B00003C00000044007C00440040003C00040DE
:1049C000000003800440044003800000041007F04E
:1049D00004500440038000000000038004400450A1
:1049E00007F00010044007C002400400040000006B
:1049F000000006400540054004C00000000004001F
:104A00001F80044000400000040007800040044074
:104A100007C000400400070004C001800600040035
:104A2000060001C0070001C006000000044006C0E7
:104A3000010006C0044000000410071004E00180DB
:104A4000060004000000044005C0064004400000C9
:104A50000000000004007BE0402000000000000097
:104A60000000FFF000000000000040207BE0040098
:104A700000000000400080004000200020004000B6
:104A80000000000000000000000000000000000026
:104A90000000000000001FCC000C0000000000001F
:104AA00000000800300060000800300060000000D6
:104AB000022003FC1E20022003FC1E200220000016
:104AC00000000E1811043FFF10840C780000000055
:104AD0000F0010840F3800C0077818840078000099
:104AE00000780F8410C411240E9800E4008400089C
:104AF00008006800700000000000000000000000D6
:104B000000000000000007E0181820044002000028
:104B1000000040022004181807E000000000000018
:104B20000240024001800FF001800240024000007C
:104B30000080008000800FF800800080008000006E
:104B40000001000D000E0000000000000000000049
:104B500000000080008000800080008000800080D5
:104B60000000000C000C000000000000000000002D
:104B700000000006001800600180060018002000F8
:104B8000000007F0080810041004080807F00000EF
:104B90000000080408041FFC0004000400000000DA
:104BA00000000E0C10141024104411840E0C000090
:104BB00000000C1810041104110412880C7000007D
:104BC000000000E00320042408241FFC002400004F
:104BD00000001F9810841104110410881070000048
:104BE000000007F008881104110418880070000004
:104BF00000001C00100010FC13001C00100000003E
:104C000000000E3811441084108411440E38000046
:104C100000000700088C10441044088807F00000CA
:104C2000000000000000030C030C00000000000066
:104C3000000000000001010600000000000000006C
:104C40000000008001400220041008081004000049
:104C50000220022002200220022002200220000066
:104C60000000100408080410022001400080000029
:104C700000000E001200100C106C10800F000000DD
:104C800003E00C1813E4142417C4082807D000000C
:104C90000004003C03C41C40074000E4001C000466
:104CA00010041FFC1104110411040E880070000090
:104CB00003E00C1810041004100410081C1000006D
:104CC00010041FFC100410041004080807F0000072
:104CD00010041FFC1104110417C41004081800006C
:104CE00010041FFC1104110017C010000800000080
:104CF00003E00C181004100410441C78004000005D
:104D000010041FFC10840080008010841FFC10041D
:104D10000000100410041FFC100410040000000028
:104D200000030001100110011FFE10001000000020
:104D300010041FFC110403801464181C10040000EC
:104D400010041FFC1004000400040004000C000008
:104D500010041FFC1F0000FC1F001FFC10040000BB
:104D600010041FFC0C04030000E010181FFC1000CE
:104D700007F00808100410041004080807F00000E9
:104D800010041FFC10841080108010800F000000A1
:104D900007F0081810241024101C080A07F200005D
:104DA00010041FFC1104110011C011300E0C00047E
:104DB00000000E1C11041084108410441C380000E4
:104DC0001800100010041FFC100410001800000050
:104DD00010001FF810040004000410041FF8100055
:104DE00010001E0011E0001C007013801C00100059
:104DF0001FC0103C00E01F0000E0103C1FC000007E
:104E00001004180C163401C001C01634180C10041C
:104E100010001C00130400FC13041C001000000010
:104E20000804101C1064108413041C0410180000E3
:104E30000000000000007FFE40024002400200002F
:104E4000000030000C0003800060001C0003000024
:104E500000004002400240027FFE0000000000000F
:104E60000000000020004000400040002000000042
:104E7000000100010001000100010001000100012A
:104E80000000400040002000000000000000000082
:104E900000000098012401440144014400FC000486
:104EA00010001FFC0088010401040088007000004D
:104EB0000000007000880104010401040088000063
:104EC0000000007000880104010411081FFC0004A8
:104ED000000000F8014401440144014400C80000FE
:104EE0000000010401040FFC11041104110018005A
:104EF000000000D601290129012901C9010600008D
:104F000010041FFC008401000100010400FC0004E7
:104F100000000104190419FC000400040000000052
:104F20000000000300010101190119FE000000004A
:104F300010041FFC0024004001B4010C0104000017
:104F40000000100410041FFC000400040000000016
:104F5000010401FC0104010001FC0104010000FC4A
:104F6000010401FC008401000100010400FC0004B4
:104F7000000000F8010401040104010400F800002D
:104F8000010101FF00850104010400880070000098
:104F900000000070008801040104010501FF000108
:104FA0000104010401FC00840104010001800000EF
:104FB000000000CC012401240124012401980000F8
:104FC00000000100010007F80104010400000000D6
:104FD000010001F8000400040004010801FC0004C1
:104FE000010001800170000C0010016001800100CF
:104FF00001F0010C003001C00030010C01F0010093
:1050000000000104018C00740170018C0104000097
:10501000010101810171000E001801600180010091
:1050200000000184010C013401440184010C0000E2
:10503000000000000000000001003EFC40024002B1
:105040000000000000000000FFFF00000000000062
:105050000000400240023EFC010000000000000091
:105060000000600080008000400040002000200020
:105070009050000800000020340000003043000879
:10508000C45000083400002084040000404300089D
:1050900000000000FFFF0000000000000000000012
:1050A000010203040102030406070809007A030A47
:1050B00000000000000000000102030406070809C8
:0450C00000000000EC
:040000050800018965
:00000001FF
