:020000040800F2
:10000000480400209D010008D9090008DB09000808
:10001000DF090008E3090008E70900080000000004
:10002000000000000000000000000000ED090008D2
:10003000EB09000800000000EF090008F1090008C2
:10004000B7010008B7010008B7010008B7010008B0
:10005000B7010008B7010008B7010008B7010008A0
:1000600061570008B7010008B7010008B701000890
:10007000B7010008B7010008B7010008B701000880
:10008000B7010008B7010008B7010008B701000870
:10009000B7010008B7010008B7010008B701000860
:1000A000B7010008B7010008B7010008B701000850
:1000B000B7010008B7010008B7010008B701000840
:1000C000B7010008B7010008B7010008B701000830
:1000D000B7010008B7010008B7010008B701000820
:1000E000B7010008B7010008B7010008B701000810
:1000F000B7010008B7010008B7010008B701000800
:10010000B7010008B7010008B7010008B7010008EF
:10011000B7010008B7010008B7010008B7010008DF
:10012000B7010008B7010008B7010008B7010008CF
:10013000B7010008B7010008B7010008B7010008BF
:10014000B7010008B7010008B7010008B7010008AF
:10015000B7010008B7010008B7010008B70100089F
:10016000B7010008B7010008B7010008B70100088F
:10017000B7010008B70100086D090008B7010008C1
:10018000B7010008B7010008DFF80CD005F0C6FD84
:100190000048004709090008480400200648804735
:1001A00006480047FEE7FEE7FEE7FEE7FEE7FEE75C
:1001B000FEE7FEE7FEE7FEE7AB2D00088901000839
:1001C0002DE9F0438BB004460D4600260027B046CB
:1001D000B14600214FF0804001F050FE0121084659
:1001E00001F0C5FB02208DF8280000208DF82A00C0
:1001F00002208DF8290001208DF82B000F20099096
:1002000009A9FD4801F03AF901220021FA4801F05C
:10021000C0F901221146F84801F0BBF90122022180
:10022000F54801F0B6F901220321F34801F0B1F9D4
:100230000794ADF818500020ADF82000ADF81A0072
:100240008DF8220006A94FF0804001F08EFD60205D
:10025000ADF804000120ADF8060003960020ADF8CB
:10026000100001A94FF0804001F014FE039701A98E
:100270004FF0804001F047FECDF80C8001A94FF00F
:10028000804001F08DFECDF80C9001A94FF0804028
:1002900001F0ECFE0121880701F0F0FD0BB0BDE894
:1002A000F08310B5002142F21070FFF789FF10BDF6
:1002B000F0B58BB000240025002600270021CF4890
:1002C00001F0DCFD0121022001F051FB02208DF83C
:1002D000280000208DF82A0002208DF82900012036
:1002E0008DF82B004FF44070099009A9C44801F023
:1002F000C5F802220821C24801F04BF90222092167
:10030000BF4801F046F943F245300790FF20ADF8B1
:1003100018000020ADF82000ADF81A008DF822007A
:1003200006A9B64801F021FD6020ADF804000120C7
:10033000ADF8060003940020ADF8100001A9AF4805
:1003400001F0A8FD039501A9AC4801F0DCFD03967E
:1003500001A9AA4801F024FE039701A9A74801F0CA
:1003600085FE0121A54801F089FD0BB0F0BD10B557
:10037000FFF797FF10BD70B505460C46012C08D15C
:100380002946A00701F0DFFE0021A00701F0DDFEF5
:100390000CE0022C08D10021600701F0D4FE2946B0
:1003A000600701F0D2FE01E000BFFEE770BD70B54E
:1003B00005460C46012C08D12946A00701F0C7FECE
:1003C0000021A00701F0C5FE0CE0022C08D100219D
:1003D000600701F0BCFE2946600701F0BAFE01E0AB
:1003E00000BFFEE770BD10B5FFF75BFF10BD2DE944
:1003F000F04104460D4600260027601B06B2601936
:1004000007B2002E05DA0221704200B2FFF7CFFFDB
:1004100003E001213046FFF7CAFF002F05DA022171
:10042000784200B2FFF7A7FF03E001213846FFF74B
:10043000A2FFBDE8F0811CB50121022001F064FAA1
:100440004FF44070009001208DF8040000208DF8DA
:10045000060001208DF8070002208DF8050069468E
:10046000684801F00BF81CBD1CB54FF400700090FB
:1004700001208DF8040000208DF8060001208DF881
:10048000070002208DF8050069465E4800F0F6FF7F
:100490001CBD1CB54FF40070009000208DF80400C6
:1004A00001208DF8070002208DF8050069465548A7
:1004B00000F0E4FF1CBD10B54FF400705149183135
:1004C0000880012004F094FF4FF480704D491831EA
:1004D0000880012004F08CFF4FF4007049491A3164
:1004E0000880012004F084FF4FF4807045491A31E0
:1004F0000880012004F07CFF10BD10B54FF400709F
:1005000040491A310880022004F072FF4FF48070D5
:100510003C4918310880022004F06AFF4FF4007053
:10052000384918310880022004F062FF10BD10B570
:100530004FF40070334918310880022004F058FF4E
:100540004FF480702F4918310880022004F050FFCA
:100550004FF480702B491A310880022004F048FFC4
:100560004FF4007027491A310880022004F040FF40
:1005700010BD70B50646002424E006FA04F010F021
:10058000800F05D04FF400701E491831088004E038
:100590004FF400701B491A310880022004F028FF34
:1005A0004FF48070174918310880022004F020FFB2
:1005B0004FF4807013491A310880022004F018FFAC
:1005C000601CC4B2082CD8DB022004F011FFFFF736
:1005D00060FF022004F00CFF4FF4807009491831CD
:1005E0000880022004F004FF06481030006810F470
:1005F000007F09D0002508E0000002400004004010
:10060000000802400004024001254FF48070E549D3
:100610000880022004F0ECFEFFF726FF284670BD9C
:1006200070B50024FFF735FF022004F0E1FE082535
:100630001DE0022004F0DCFE4FF48070D949891ED1
:100640000880022004F0D4FE6006040ED5480A3863
:10065000006810F4007F01D0601CC4B24FF48070B9
:10066000D0490880022004F0C3FE681EC5B2002DE8
:10067000DFDCFFF7F9FE204670BD70B505460C467D
:10068000FFF719FF4220FFF774FF18B9FFF735FF96
:10069000012070BD022004F0B5FE2846FFF769FF77
:1006A00018B9FFF72AFF0220F3E7022004F0AAFEA0
:1006B0002046FFF75EFF18B9FFF71FFF0320E8E7AA
:1006C000FFF71BFF0020E4E770B505460C46FFF777
:1006D000F2FE4220FFF74DFF18B9FFF70EFF012091
:1006E00070BD022004F08EFE2846FFF742FF18B9C5
:1006F000FFF703FF0220F3E7FFF7FFFE022004F0FD
:1007000081FEFFF7D8FE4320FFF733FF18B9FFF74C
:10071000F4FE0320E4E7022004F074FEFFF780FFFC
:100720002070FFF704FFFFF7E8FE0020D8E770B560
:1007300005460C46FFF7BFFE6020FFF71AFF18B909
:10074000FFF7DBFE012070BD022004F05BFE2846AF
:10075000FFF70FFF18B9FFF7D0FE0220F3E70220E2
:1007600004F050FE2046FFF704FF18B9FFF7C5FE5E
:100770000320E8E7FFF7C1FE0020E4E770B5054677
:100780000C46FFF798FE6020FFF7F3FE18B9FFF75D
:10079000B4FE012070BD022004F034FE2846FFF7AD
:1007A000E8FE18B9FFF7A9FE0220F3E7FFF7A5FE60
:1007B000022004F027FEFFF77EFE6120FFF7D9FE3E
:1007C00018B9FFF79AFE0320E4E7022004F01AFEAE
:1007D000FFF726FF2070FFF7AAFEFFF78EFE00202E
:1007E000D8E708B569461C20FFF7C8FF9DF8000050
:1007F00008BD10B580211220FFF73FFF10BD10B5D6
:100800002D211220FFF739FF24211420FFF735FF97
:1008100021211320FFF731FF01211620FFF72DFFC3
:1008200002212020FFF729FF204610BD10B5044605
:10083000012C06D0022C0AD0032C0DD0042C19D187
:1008400011E0642141F65830FFF7D1FD12E0642138
:100850005548FFF7CCFD0DE04FF47A7141F6583062
:10086000FFF7C5FD06E04FF4FA6141F65830FFF797
:10087000BEFD00BF00BF10BD2DE9F05F83468A4674
:10088000584605F024F98046484A494B05F099F846
:1008900006460022474B04F0EDFF044605F02AF916
:1008A0008346504605F013F90646434A434B05F08C
:1008B00088F804460022424B04F0DCFF804605F035
:1008C00019F982463F49584604F094FF06463E49CE
:1008D00004F05AFF054605F0E6F8044621463B4879
:1008E00001F035FC3749504604F084FF064636498E
:1008F00004F04AFF054605F0D6F804462146334881
:1009000001F027FCBDE8F09F1CB504F09DFD04F04C
:1009100043FDFFF72CFD04F0DBFDFFF7C9FCFFF7FB
:100920008AFDFFF75EFF2A4908600A2004F06AFD8D
:1009300002F0B8FD002141F65830FFF758FD0A20BB
:1009400004F060FD642004F05DFD0EE00020102145
:100950000823CDE900101E484FF4AA7102689C20BC
:1009600004F06DFC052004F04DFDEFE710B501200B
:1009700000F069F948B1174800681549086000207F
:1009800014490860012000F06AF9102000F05BF9BA
:1009900038B110480068401C0E490860102000F073
:1009A0005EF910BD1A040240A8E4FFFFEC51B81E26
:1009B00085EBB13F00000840B81E85EB51B8AE3F53
:1009C000000014400000C84200144D4600040040DE
:1009D0000000002004000020704700BFFEE700BFB9
:1009E000FEE700BFFEE700BFFEE7704770477047B5
:1009F00010B504F014FD10BD33490143334A1160B2
:100A0000704770B5002100230F22C47824B32F4C07
:100A1000246804F4E064C4F5E064C4F30721C1F180
:100A20000404E3B20A4144789C40E1B28478144063
:100A300021430C07210E264C05786155047804F0FB
:100A40001F050124AC4005786D114FF0E02606EB40
:100A50008505C5F8004109E0047804F01F0401256C
:100A6000A5401C4C0678761144F8265070BD1A4AF1
:100A70000A400243154B1B1F1A60704739B1134AD5
:100A8000121D12680243114B1B1D1A6006E00F4A2B
:100A9000121D126882430D4B1B1D1A6070470428FB
:100AA00008D14FF0E021096941F004014FF0E02244
:100AB000116107E04FF0E021096921F004014FF0D6
:100AC000E0221161704700000000FA050CED00E023
:100AD00000E400E080E100E080FFFF1F00206149AA
:100AE0000860C8601F20486100208861C8610862F2
:100AF0004862704700215B4A126844F201039A433E
:100B0000584B1A601A46116840F6F27291430288F7
:100B100043881A4383881A43C3881A4303891A43B4
:100B200043891A4383891A4311434E4A116070471F
:100B30000021018041808180C180018141818181CA
:100B400070474188028841EA0241464A1162C188E1
:100B5000828841EA0241434A5162704730B14149BB
:100B6000096841F004013F4A116005E03D49096808
:100B700021F004013B4A116070470178427841EA54
:100B80000221827841EA0241C27841EA0261354A93
:100B90009161704730B13349096841F00801314A29
:100BA000116005E02F49096821F008012D4A116004
:100BB000704730B12B49096841F48041294A1160DE
:100BC00005E02849096821F48041264A11607047F0
:100BD00030B12449096841F00101224A116005E061
:100BE0002049096821F001011E4A116070471D4823
:100BF000806A704729B11B4AD2680243194BDA60F8
:100C000006E0184AD268C3439BB21A40154BDA601B
:100C1000704710B50146002000230A13012A02D1B3
:100C2000104CA36806E0022A02D10E4C636801E072
:100C30000C4C23690B4201D0012000E0002010BDC4
:100C4000084948617047014600200022054B1B6996
:100C500003EA01020AB1012000E0002070470149C7
:100C60004861704700000550002044490860091D94
:100C70000860091D0860091D086041483F4914319A
:100C80000860704700213D498279002A3AD00A461F
:100C9000126803689A430B461A600A1D12680368BB
:100CA0009A430B1D1A60027911440A6803681A43BB
:100CB0000A60324A0832126803689A432F4B08339D
:100CC0001A601A1D126803689A432C4B0C331A6081
:100CD0004279102A0ED11A1F126803681A43274B53
:100CE00008331A601A1D126803681A43234B0C3329
:100CF0001A600DE02149427911440A6803681A43D9
:100D00000A6005E0027911440A6803689A430A60A0
:100D100070470021016001710C2141710021817136
:100D200070471649103109680143144A10321160A6
:100D3000704701460020114A143212680A4201D05D
:100D4000012000E0002070470C4914310860704712
:100D5000014600200022094B1B6803EA0102074BF1
:100D600014331B680B4202D00AB1012000E00020BE
:100D7000704702491431086070470000003C014090
:100D8000FFFF7F0030B943F2DB014FF0204242F811
:100D9000201005E043F2D2014FF0204242F820102B
:100DA0006FF07042411C4FF0204343F82120114660
:100DB0001A4602EB8002C2F804117047D0E9011212
:100DC0001143C268114302691143426911438269A8
:100DD0001143C2691143026A1143426A1143826A94
:100DE0001143C26A1143026B11434FF02043026862
:100DF00043F822108168082908D11A46016852F880
:100E0000211041F04001026843F82210416B09684B
:100E1000426B526841EA0211426B926841EA022138
:100E2000426B928941EA0241426B128A41EA0251C5
:100E3000426B127D41EA0261426B92691143026882
:100E4000521C4FF0204343F82210C16AB1F5804F85
:100E50001AD1816B0968826B526841EA0211826B78
:100E6000926841EA0221826B128A41EA0251826B46
:100E7000127D41EA0261826B92691143026803EBC1
:100E80008202C2F8041108E06FF070414FF0204375
:100E9000026803EB8202C2F804117047002101606E
:100EA0000221416000218160C16001614161816175
:100EB000C16101624FF480514162490081620021A9
:100EC000C16201630F21426B1160426B5160FF21CF
:100ED000426B91600F21426BD160426B1161426B9A
:100EE00051610021426B91610F21826B1160826B15
:100EF0005160FF21826B91600F21826BD160826B08
:100F00001161826B51610021826B9161704751B117
:100F10004FF0204252F8202042F001024FF02043CF
:100F200043F8202009E04FF0204252F82020F84BEF
:100F30001A404FF0204343F82020704710280AD170
:100F400018214FF020421166402151664FF0FC31CC
:100F50009166D16610E01821EE4A11604FF0400111
:100F60004FF02042C2F884104FF0FC31EA4A116081
:100F70004FF02042C2F88C10704730B5002100229B
:100F80000023446844F0080485682C43C5682C435A
:100F900005692C43456944EA4524856944EA45319D
:100FA000C4692468C5696D6844EA0524C5692D894A
:100FB00044EA0544C5692D7B44EA0562046A246855
:100FC000056A6D6844EA0524056A2D8944EA0544EA
:100FD000056A2D7B44EA05630468102C05D14FF0A7
:100FE00020442166A266E36607E0CA4C21604FF008
:100FF0002044C4F88820C94C236030BD1021016012
:10100000002141608160C160016141618161FC2119
:10101000C2691160C2695160C2699160C269D160E0
:10102000026A1160026A5160026A9160026AD160CC
:10103000704799B1102808D14FF02042126E42F04B
:1010400004024FF020431A661DE0B24A126842F0D3
:1010500004024FF02043C3F8802014E0102809D187
:101060004FF02042126EAA4BDB1E1A404FF0204375
:101070001A6608E0A74A1268A94B02EA03024FF079
:101080002043C3F88020704799B1102808D14FF051
:101090002042126E42F040024FF020431A661DE0DB
:1010A0009C4A126842F040024FF02043C3F880206F
:1010B00014E0102809D14FF02042126E984B3C3BAF
:1010C0001A404FF020431A6608E0924A1268954B86
:1010D00002EA03024FF02043C3F880207047014624
:1010E0000020102903D14FF02042506F01E08E4ABA
:1010F0001068704718208D4908604FF000004FF0CD
:101100002041C1F8A4004FF0FC308949086001F18A
:101110000401086001F1040108607047016841F0B2
:101120001001426841EA4221826841EA42317F4A25
:101130001160C1680968C268526841EA0221C26848
:10114000128941EA0241C268127B41EA0261784A8F
:101150001160016909680269526841EA0221026965
:10116000128941EA02410269127B41EA0261714A35
:101170001160416909684269526841EA0221426985
:10118000128941EA02414269127B41EA02614FF051
:101190002042C2F8B01070470021016041608160B8
:1011A000FC21C2681160C2685160C2689160C26867
:1011B000D16002691160026951600269916002693F
:1011C000D16042691160426951604269916042692F
:1011D000D160704740B15549096841F004014FF0B2
:1011E0002042C2F8A01008E0504909684C4A01EAC0
:1011F00002014FF02042C2F8A010704710B5F2B1C2
:10120000102807D14FF020435B6E0B434FF0204472
:10121000636632E0B0F5807F08D1474B1B6843EA34
:1012200001034FF02044C4F8843026E0434B1B6890
:1012300043EA01034FF02044C4F8A4301DE0102815
:1012400007D14FF020435B6E8B434FF02044636621
:1012500013E0B0F5807F08D1374B1B6823EA010308
:101260004FF02044C4F8843007E0344B1B6823EA75
:1012700001034FF02044C4F8A43010BD10B502465D
:1012800000200023102A03D14FF02044636E07E0B2
:10129000B2F5807F02D1284C236801E0274C2368F7
:1012A0000B4201D0012000E0002010BD102807D122
:1012B0004FF02042526E8A434FF020435A6613E0AB
:1012C000B0F5807F08D11C4A126822EA01024FF073
:1012D0002043C3F8842007E0184A126822EA01027A
:1012E0004FF02043C3F8A420704770B50246002099
:1012F000002300240025102A03D14FF02046736EEE
:1013000020E0B2F5807F1BD10B4E33681AE000005D
:10131000FEFF0F00800000A0880000A08C0000A04D
:10132000FBFF0F00BFFF0F00940000A0A00000A073
:10133000A80000A0AC0000A0840000A0A40000A0B1
:10134000154E336803EA010403EAD10514B10DB167
:10135000012000E0002070BD102808D14FF020428D
:10136000526E22EAD1024FF020435A6613E0B0F5E4
:10137000807F08D1094A126822EAD1024FF0204347
:10138000C3F8842007E0044A126822EAD1024FF031
:101390002043C3F8A4207047A40000A0840000A04C
:1013A00010B504468C48844208D10121084600F05B
:1013B00000FB0021012000F0FCFA5EE08748844237
:1013C00008D10121022000F0F4FA0021022000F0EF
:1013D000F0FA52E08248844208D10121042000F052
:1013E000E8FA0021042000F0E4FA46E07D48844257
:1013F00008D10121082000F0DCFA0021082000F0CB
:10140000D8FA3AE07848844208D10121102000F04F
:10141000D0FA0021102000F0CCFA2EE0734884426C
:1014200008D10121202000F0C4FA0021202000F082
:10143000C0FA22E06E48844208D10121402000F029
:10144000B8FA0021402000F0B4FA16E0694884425E
:1014500008D10121802000F0ACFA0021802000F0AA
:10146000A8FA0AE06448844207D10121801500F0FF
:10147000A0FA0021A01500F09CFA10BDF0B50A46B4
:1014800000210023002400BF3DE0012505FA01F3FF
:10149000156805EA03049C4234D105684F00032611
:1014A000BE40B543056015794E00B540066835432A
:1014B00005601579012D02D01579022D16D18568A8
:1014C0004F000326BE40B543856055794E00B540B8
:1014D000866835438560456801268E40B543456082
:1014E000456896798E40B6B235434560C5684F0071
:1014F0000326BE40B543C560D5794E00B540C668E9
:101500003543C560491C1029BFD3F0BD4FF6FF71AC
:1015100001600021017141718171C171704708B58D
:101520004FF480320092009A0A430092009AC261FE
:10153000C161009AC261C2690092C269009208BD8D
:101540000246002013690B4201D0012000E0002078
:1015500070470146086980B270470246002053690F
:101560000B4201D0012000E000207047014648698D
:1015700080B2704701837047418370470AB101838D
:1015800000E0418370474161704742694A404261CF
:101590007047F0B5002300244D07ED0E02FA05F365
:1015A000CE1000F1200555F826504E07F70E0F26F5
:1015B000BE40B543CF1000F1200646F82750CE10AC
:1015C00000F1200555F8265045EA0304CE1000F13D
:1015D000200545F82640F0BD00000240000402400E
:1015E00000080240000C02400010024000140240BB
:1015F00000180240001C024000200240FA48006827
:1016000040F00100F84908600020F74908310860FF
:10161000F5480068F5490840F3490860F448091D99
:101620000860081F006820F48020091F086000205F
:10163000ED490C31086070470021EB4A921C117093
:1016400011460870704710B50146002200230020A3
:101650004A11012A02D1E44C236808E0022A03D18E
:10166000E14C7034236802E0DF4C7434236801F0ED
:101670001F02012494401C4201D0012000E0002000
:1016800010BD38B5002000900024002500BF312097
:10169000FFF7D9FF05460098401C00900098B0F570
:1016A000A06F01D0002DF2D03120FFF7CCFF08B1A0
:1016B000012400E00024204638BD01460020CA4A2B
:1016C000106820F0F80040EAC10010607047C94976
:1016D000086070470021C44A7032117011700128EF
:1016E00002D004280AD104E00121BF4A70321170EF
:1016F00005E00521BC4A7032117000E000BF00BF58
:101700007047BD490860704770B5049C41EA821576
:101710000126C6EB530645EA0645054345EA04653E
:10172000B14E361D356070BDB24908667047820102
:1017300042EA0172AC4B84331A607047AD49886647
:101740007047AC49C864704702460020A64B083376
:10175000186820F0EC6042EA01031843A24B0833FA
:1017600018607047024600209F4B0833186820F02D
:10177000784042EA010318439B4B083318607047D6
:1017800001460020984A0832106820F00300084300
:101790001060704794480830006800F00C007047F3
:1017A00001460020904A0832106820F0F0000843FB
:1017B00010607047014600208B4A0832106820F400
:1017C000E05008431060704701460020864A083206
:1017D000106820F4604040EAC10010607047F0B526
:1017E0000021002200240225002602237E4F083714
:1017F0003F6807F00C0121B1042905D0082937D131
:1018000005E07E4F076036E07D4F076033E0764F9E
:101810003F1D3F68C7F38056734F3F1D3F6807F079
:101820003F036EB1764FB7FBF3F7DFF8BCC10CF1A5
:10183000040CDCF800C0CCF3881C07FB0CF40CE0B3
:101840006E4FB7FBF3F7DFF8A0C10CF1040CDCF826
:1018500000C0CCF3881C07FB0CF4634F3F1D3F68AE
:10186000C7F301477F1C7D00B4FBF5F7076002E07A
:10187000624F076000BF00BF5B4F08373F6807F04B
:10188000F00109095F4F7A5C0768D7404760564FFF
:1018900008373F6807F4E051890A5A4F7A5C476875
:1018A000D7408760504F08373F6807F46041490BC5
:1018B000544F7A5C4768D740C760F0BD002100F400
:1018C0004072B2F5407F0AD1474A0832116821F4CC
:1018D000F8114D4A02401143434A08321160424A0E
:1018E00070321268C0F30B031A433F4B70331A6017
:1018F000704741494439086070473F4940390860A2
:10190000704742490860704739B1374A303212682F
:101910000243354B30331A6006E0334A30321268E6
:101920008243314B30331A60704739B12E4A34321A
:10193000126802432C4B34331A6006E02A4A3432D0
:1019400012688243284B34331A60704739B1264AF3
:10195000383212680243244B38331A6006E0224AB8
:10196000383212688243204B38331A60704739B1DD
:101970001D4A4032126802431B4B40331A6006E096
:10198000194A403212688243174B40331A6070473D
:1019900039B1154A443212680243134B44331A607A
:1019A00006E0114A4432126882430F4B44331A60F6
:1019B000704739B10C4A1032126802430A4B103397
:1019C0001A6006E0084A103212688243064B103350
:1019D0001A607047E1B1044A143212680243024BA4
:1019E00014331A6019E0000000380240FFFFF6FED1
:1019F0001030002400004742800E47420024F400CB
:101A000000127A0008000020FFFCFF0F5C01474233
:101A10005B4A126882435A4B1A60704739B1584A80
:101A2000121D12680243564B1B1D1A6006E0544AF1
:101A3000121D12688243524B1B1D1A60704739B148
:101A40004F4A0C32126802434D4B0C331A6006E0C9
:101A50004B4A0C3212688243494B0C331A60704770
:101A600039B1474A103212680243454B10331A60AD
:101A700006E0434A103212688243414B10331A6029
:101A8000704739B13E4A3C32126802433C4B3C330A
:101A90001A6006E03A4A3C3212688243384B3C33C3
:101AA0001A60704739B1364A403212680243344BEB
:101AB00040331A6006E0324A403212688243304BAB
:101AC00040331A60704739B12D4A443212680243DC
:101AD0002B4B44331A6006E0294A44321268824391
:101AE000274B44331A60704739B1254A4C3212688B
:101AF0000243234B4C331A6006E0214A4C321268F1
:101B000082431F4B4C331A60704739B11C4A503224
:101B1000126802431A4B50331A6006E0184A5032DA
:101B200012688243164B50331A60704739B1144A19
:101B3000D21F12780243124BDB1F1A7006E0104AC4
:101B4000D21F127882430E4BDB1F1A7070470C486D
:101B50006030006840F0807009496031086070476B
:101B600001460020064A083A12680A4201D00120C4
:101B700000E0002070470249891F0870704700008C
:101B80001438024010B501218803FFF769FF0021D6
:101B90004FF48040FFF764FF10BD1A49086070479A
:101BA00030B500228B071C0F0F2303FA04F2154BEC
:101BB00008338C1053F824309343124C08348D10A2
:101BC00044F8253023468C1053F824308C07240F1A
:101BD00000FA04F423430B4C08348D1044F82530EC
:101BE00030BD094908607047084908607047002007
:101BF00004492031096811F4807F01D0012000E000
:101C00000020704700380140DC00274200042742D2
:101C100010B50446FE48844208D101210846FFF76A
:101C20001FFF00210120FFF71BFF9DE0B4F1804F53
:101C300008D101210846FFF702FF00210120FFF72C
:101C4000FEFE91E0F348844208D101210220FFF713
:101C5000F6FE00210220FFF7F2FE85E0EE48844206
:101C600008D101210420FFF7EAFE00210420FFF73C
:101C7000E6FE79E0E948844208D101210820FFF717
:101C8000DEFE00210820FFF7DAFE6DE0E448844222
:101C900008D101211020FFF7D2FE00211020FFF70C
:101CA000CEFE61E0DF48844208D101212020FFF709
:101CB000C6FE00212020FFF7C2FE55E0DA4884422C
:101CC00008D101210220FFF7CBFE00210220FFF7FF
:101CD000C7FE49E0D548844209D101210804FFF735
:101CE000BFFE00214FF48030FFF7BAFE3CE0D04841
:101CF000844209D101214804FFF7B2FE00214FF4CC
:101D00000030FFF7ADFE2FE0CA48844209D101211F
:101D10008804FFF7A5FE00214FF48020FFF7A0FE06
:101D200022E0C548844208D101214020FFF787FE08
:101D300000214020FFF783FE16E0C048844208D10E
:101D400001218020FFF77BFE00218020FFF777FE36
:101D50000AE0BB48844207D101218015FFF76FFEDE
:101D60000021A015FFF76BFE10BD00220288A84BD2
:101D700098420ED0AC4B98420BD0B0F1804F08D0B7
:101D8000A44B984205D0A44B984202D0A34B984252
:101D900004D14FF68F731A404B881A43A04B9842D8
:101DA00007D0A04B984204D04FF6FF431A400B894E
:101DB0001A4302804B68C3620B880385944B984298
:101DC00002D0994B984201D18B7A038601238382FA
:101DD00070474FF0FF314160002101800181418057
:101DE000817270470185828270470A46002101880E
:101DF0004FF68F731940114301807047416270475D
:101E0000C16270470146486A70470146088D7047B5
:101E100021B1028842F00202028004E002884FF6FB
:101E2000FD731A400280704721B1028842F004021B
:101E3000028004E002884FF6FB731A40028070476C
:101E400021B1028842F08002028004E002884FF64D
:101E50007F731A400280704702884FF6F7731A406A
:101E6000028002880A430280704702884FF6FF43CF
:101E70001A40028002880A430280704721B102881A
:101E800042F00102028004E002884FF6FE731A401D
:101E90000280704770B5002400220023058C4FF6A5
:101EA000FE7635400584028C8388048B4FF68F754F
:101EB0002C40B51E2C400D882C43751E2A408D8960
:101EC0002A434D882A43524DA84202D0564DA8427B
:101ED00013D14FF6F7752A40CD892A434FF6FB758B
:101EE0002A408D882A434FF6FF652B404FF6FF5559
:101EF0002B400D8A2B434D8A2B43838004838D68AE
:101F00004563028470BD70B5002400220023058C57
:101F10004FF6EF7635400584028C8388048B48F6B3
:101F2000FF752C404FF6FF452C400D884FF6FF768D
:101F300006EA05252C434FF6DF752A408D8906EA0F
:101F400005152A434D8806EA05152A43304DA84257
:101F500002D0354DA8421DD14FF67F752A40CD895C
:101F60004FF6FF7606EA05152A434FF6BF752A405D
:101F70008D8806EA05152A434FF6FF352B404FF2B0
:101F8000FF752B400D8A06EA85052B434D8A06EA2C
:101F900085052B43838004838D688563028470BD2F
:101FA00070B5002400220023058C4FF6FF663540F3
:101FB0000584028C8388848B4FF68F752C404FF6F6
:101FC000FC752C400D882C434FF6FF552A408D8917
:101FD0004FF6FF7606EA05252A434D8806EA0525D1
:101FE0002A430B4DA84202D00F4DA84238D14FF2E0
:101FF000FF752A40CD894FF6FF7606EA05252A436C
:102000004FF6FF352A408D8806EA05252A4319E058
:10201000000001400004004000080040000C0040A7
:102020000010004000140040000401400040014046
:10203000004401400048014000180040001C0040DE
:10204000002000404EF6FF752B404DF6FF752B40EB
:102050000D8A06EA05152B434D8A06EA05152B4322
:10206000838084838D68C563028470BD70B500224F
:1020700000230024058C4EF6FF7635400584038C42
:102080008488828B48F6FF752A404FF6FF452A4028
:102090000D884FF6FF7606EA05252A434DF6FF75B3
:1020A0002B408D8906EA05352B434D8806EA053518
:1020B0002B43FE4DA84202D0FD4DA84208D14BF65D
:1020C000FF752C400D8A4FF6FF7606EA85152C43E6
:1020D000848082838D680564038470BD0021018043
:1020E0004180818081608181C1810182418270470C
:1020F00070B50346002000241846183001258D4095
:10210000ACB21D8CA5431D8409B108290AD100EB8E
:10211000610005684FF68F76354005600568154308
:1021200005600FE00D1FC5F34E052844056848F60D
:10213000FF763540056005684FF6FF7606EA022611
:102140003543056070BD4163704781637047C1636B
:102150007047016470470A460021018B4FF68F7368
:1021600019401143018370470A460021018B48F64C
:10217000FF7319404FF6FF7303EA022319430183EB
:1021800070470A460021818B4FF68F731940114327
:10219000818370470A460021818B48F6FF731940FE
:1021A0004FF6FF7303EA02231943818370470A46FF
:1021B0000021018B4FF6F7731940114301837047DB
:1021C0000A460021018B4FF2FF7319404FF6FF734F
:1021D00003EA02231943018370470A460021818BD9
:1021E0004FF6F77319401143818370470A46002167
:1021F000818B4FF2FF7319404FF6FF7303EA0223FE
:102200001943818370470A460021018B4FF6FB7307
:1022100019401143018370470A460021018B4FF694
:10222000FF3319404FF6FF7303EA0223194301837A
:1022300070470A460021818B4FF6FB73194011430A
:10224000818370470A460021818B4FF6FF33194086
:102250004FF6FF7303EA02231943818370470A464E
:102260000021018B4FF67F731940114301837047A2
:102270000A460021018BC1F30E014FF6FF7303EAFA
:1022800002231943018370470A460021818B4FF6D0
:102290007F7319401143818370470A460021818B67
:1022A000C1F30E014FF6FF7303EA02231943818342
:1022B00070470A460021018C4FF6FD731940114307
:1022C000018470470A460021018C4FF6F7731940CC
:1022D0001143018470470A460021018C4FF6DF73D9
:1022E00019404FF6FF7303EA021319430184704744
:1022F0000A460021018C4FF67F7319404FF6FF7399
:1023000003EA02131943018470470A460021018C35
:102310004FF6FF5319404FF6FF7303EA02231943A8
:10232000018470470A460021018C4FF2FF73194067
:102330004FF6FF7303EA02231943018470470A46EC
:102340000021018C4DF6FF7319404FF6FF7303EA2D
:10235000023319430184704730B5002301248C40B7
:10236000A3B2048C9C430484048C02FA01F5ADB240
:102370002C43048430BD30B5002304248C40A3B228
:10238000048C9C430484048C02FA01F5ADB22C4306
:10239000048430BD828B4FF2FF331A408283828BDC
:1023A0004FF6FF7303EA01231A4382837047F0B5A7
:1023B0000C461546002100220026078C4EF6FF7CB5
:1023C00007EA0C070784818B028C4FF6FF7707EA38
:1023D000043640F6FF4739404FF6FF7707EA0527F6
:1023E00039434FF6FF7707EA0337394345F6FF775E
:1023F0003A4046F480573A4381830284F0BD828B91
:102400004FF6F3731A408283828B0A4382837047AC
:10241000F0B50C461546002100220026078C4FF629
:10242000FF6C07EA0C070784818B028C4FF6FF775D
:1024300007EA04264FF60C7739404FF6FF7707EA94
:1024400003172F4339434FF2FF573A4046F4807742
:102450003A4381830284F0BD028B4FF2FF331A406E
:102460000283028B4FF6FF7303EA01231A430283B0
:102470007047F0B50C461546002100220026078C57
:102480004FF6EF7C07EA0C070784018B028C4FF6AE
:10249000FF7707EA041640F6FF4739404FF6FF770B
:1024A00007EA033739434FF6FF7703E000000140A6
:1024B0000004014007EA052739434FF65F773A40A9
:1024C00046F010073A4301830284F0BD028B4FF6B9
:1024D000F3731A400283028B0A4302837047F0B5FC
:1024E0000C46154600210022068C4FF6FE773E4032
:1024F0000684018B028C4FF60C7631407E1C06EA76
:1025000003162E4331434FF6F576324044F0010670
:10251000324301830284F0BD70B505460C46208825
:1025200050B92389A28861882846FFF7D8FFE1883F
:102530002846FFF7CBFF25E0208804280AD123890D
:10254000A28861882846FFF794FFE1882846FFF7B4
:1025500083FF17E0208808280AD12389A288618890
:102560002846FFF755FFE1882846FFF748FF09E0B6
:102570002389A28861882846FFF719FFE188284649
:10258000FFF708FF70BD002101804180012181809B
:102590000021C180018170472DE9F04105460C46BC
:1025A00000260127608808B9022600E00026A088DE
:1025B000012801D1022700E001272088A0B9238942
:1025C000A28861882846FFF78AFFE1882846FFF73E
:1025D0007DFF23893A4631462846FFF74AFFE188C6
:1025E0002846FFF739FF13E02389A288618828462F
:1025F000FFF73FFFE1882846FFF72EFF23893A4681
:1026000031462846FFF76BFFE1882846FFF75EFF5B
:10261000BDE8F0810146486B70470146886B704702
:102620000146C86B70470146086C70470A884B88A2
:102630001A438B881A43CB881A430B891A434B8958
:102640001A438B891A43A0F8442070470021018067
:1026500041808180C180018141818181704731B198
:10266000B0F8442042F40042A0F8442005E0B0F85D
:102670004420C2F30E02A0F84420704721B18288A2
:1026800042F00402828004E082884FF6FB731A4015
:102690008280704721B1828842F00102828004E08A
:1026A00082884FF6FE731A40828070471AB1838980
:1026B0000B43838102E083898B438381704781824E
:1026C000704702460020138A0B4201D0012000E02F
:1026D00000207047CA430282704730B5024600208E
:1026E00000230024158A05EA0103958905EA0104FF
:1026F00013B10CB1012000E0002030BDCA430282BA
:10270000704741EA0203A0F8483070471AB1838944
:102710000B43838102E083898B438381704721B11E
:10272000828842F00802828004E082884FF6F773C4
:102730001A408280704701894FF6F872114001817A
:1027400070470A46002101894FF68F7319401143E3
:102750000181704730B504460D4629462046FFF7F3
:10276000F0FF208940F00700208130BD2DE9F041C5
:1027700004460D4616461F46602D06D13B460122F3
:1027800031462046FFF775FE05E03B460122314603
:102790002046FFF7A4FE29462046FFF7D2FF2089F6
:1027A00040F007002081BDE8F08130B50C460021E3
:1027B0000189C9B24FF6FF7505EA03251543254384
:1027C0002943018130BD2DE9F04105460E461746EB
:1027D0009846002443463A4631462846FFF7E5FF2F
:1027E0002C894FF6F870044044F007044FF68F70C0
:1027F000044044F070042C81BDE8F081F0B504463B
:102800000D4616461F463B46324629462046FFF7F0
:10281000CCFF208940F480402081F0BD82884FF6B3
:102820008F731A40828082880A43828070470289AF
:102830004FF6F8731A40028102890A4302817047F9
:1028400002894FF67F731A40028102890A4302818E
:102850007047F0B50C4615461E46002100220023A5
:102860000189028B038C4FF6F877394021434FF6EC
:10287000FC473A4040F201173A434FF6DD773B40C0
:102880004FF6FF7707EA06172F433B430181028388
:102890000384F0BD21B1828842F08002828004E08E
:1028A00082884FF67F731A4082807047A0F85010DC
:1028B0007047000010B50446F748844208D1012152
:1028C0001020FFF7CDF800211020FFF7C9F83EE0F7
:1028D000F248844209D101214804FFF7B0F80021F1
:1028E0004FF40030FFF7ABF831E0ED48844209D1F6
:1028F00001218804FFF7A3F800214FF48020FFF79F
:102900009EF824E0E748844209D10121C804FFF77A
:1029100096F800214FF40020FFF791F817E0E24805
:10292000844209D101210805FFF789F800214FF4FD
:102930008010FFF784F80AE0DC48844207D10121C7
:102940002020FFF78DF800212020FFF789F810BD27
:102950002DE9FF4705460E460024A14600BFA046CC
:10296000B08900B100BF2C8A24F44054F08804439D
:102970002C82AC8941F20C608443B08831890843D1
:10298000718908430443AC81AC8A24F44074B08953
:102990000443AC826846FEF722FFBF48854202D05E
:1029A000C248854202D1DDF80C9001E0DDF80890C4
:1029B000A88910F4004F08D009EBC90000EB0910FA
:1029C00031684900B0FBF1F707E009EBC90000EB03
:1029D000091031688900B0FBF1F76420B7FBF0F013
:1029E00004012009642101FB1078A88910F4004F2C
:1029F00008D0322000EBC800B0FBF1F000F0070077
:102A0000044308E0322000EB08106421B0FBF1F031
:102A100000F00F0004432C81BDE8FF874FF41651EE
:102A2000016000218180C18001810C214181002150
:102A30008181704710B502460020108A20F4706032
:102A40000B884C8823438C882343CC88234318432A
:102A5000108210BD0021018041808180C1807047BB
:102A600021B1828942F40052828104E082894DF6CC
:102A7000FF731A4082817047028B02F47F42028307
:102A8000028B0A430283704721B1828942F40042DB
:102A9000828103E08289C2F30E028281704721B1F4
:102AA000828A42F40062828204E0828A4FF2FF73DB
:102AB0001A4082827047C1F3080282807047014643
:102AC0008888C0F308007047028A4FF6F0731A40F6
:102AD0000282028A0A430282704721B1828942F04F
:102AE0000202828104E082894FF6FD731A408281DE
:102AF000704782894FF2FF731A40828182890A43AC
:102B000082817047028A4FF6DF731A400282028A7E
:102B10000A430282704721B1028A42F48042028253
:102B200004E0028A4BF6FF731A40028270478189E3
:102B300041F001018181704721B1828A42F008028F
:102B4000828204E0828A4FF6F7731A4082827047CD
:102B5000028BD2B20283028B42EA012202837047C7
:102B600021B1828A42F02002828204E0828A4FF6FA
:102B7000DF731A408282704721B1828A42F01002CC
:102B8000828204E0828A4FF6EF731A408282704795
:102B9000828A4FF6FB731A408282828A0A438282BB
:102BA000704721B1828A42F00202828204E0828A66
:102BB0004FF6FD731A40828270471AB1838A0B4325
:102BC000838202E0838A8B4383827047F0B5034699
:102BD0000024002600250020A1F510676A3F00D1DF
:102BE00000BF1846C1F3421401F01F06012707FA7F
:102BF00006F5012C01D10C3004E0022C01D110307B
:102C000000E014301AB107682F43076002E007683C
:102C1000AF430760F0BD02460020B1F5007F00D150
:102C200000BF13880B4201D0012000E00020704754
:102C300001F40072B2F5007F00D100BFCA430280E8
:102C4000704770B502460024002300250020A1F53E
:102C500010666A3E00D100BFC1F3421501F01F03A8
:102C6000012606FA03F3012D02D19689334006E0CE
:102C7000022D02D1168A334001E0968A33400C12AD
:102C8000012606FA04F41688344013B10CB1012071
:102C900000E0002070BD0000001001400044004032
:102CA00000480040004C004000500040001401402B
:102CB00010B500220023A1F510646A3C00D100BFCA
:102CC0000A1201249440A3B2DC43048010BD00002A
:102CD0000CB50020019000907248006840F48030EC
:102CE0007049086000BF6F48006800F40030009031
:102CF0000198401C0190009818B90198B0F5A06F98
:102D0000F1D16848006810F4003F02D00120009023
:102D100001E0002000900098012845D16148403032
:102D2000006840F080505F49403108605E480068AC
:102D300040F480405C4908605A48083000685949AE
:102D4000083108600846006840F400400860084602
:102D5000006840F4A05008605448091F0860081F2C
:102D6000006840F08070091F086000BF4D4800688F
:102D700010F0007FFAD040F205604D4908604948E4
:102D80000830006820F00300464908310860084612
:102D9000006840F00200086000BF42480830006848
:102DA00000F00C000828F8D10CBD10B53D480068B3
:102DB00040F001003B49086000203A4908310860B2
:102DC000384800683B490840364908603A48091DC0
:102DD0000860081F006820F48020091F0860002098
:102DE00030490C310860FFF773FF4FF00060334942
:102DF000086010BD70B500200022022300240221CB
:102E0000284D08352D6805F00C0020B1042806D0A7
:102E1000082834D107E02A4D2A4E356033E02A4D88
:102E2000284E35602FE01F4D2D1D2D68C5F38054B1
:102E30001C4D2D1D2D6805F03F0154B1224DB5FBF1
:102E4000F1F5184E361D3668C6F3881605FB06F2F6
:102E500009E01B4DB5FBF1F5124E361D3668C6F381
:102E6000881605FB06F20F4D2D1D2D68C5F3014593
:102E70006D1C6B00B2FBF3F5124E356003E0104D94
:102E8000104E356000BF00BF064D08352D68C5F3F4
:102E900003150E4E705D0B4D2D68C540094E356013
:102EA00070BD000000380240007000400854400728
:102EB000003C0240FFFFF6FE1030002408ED00E069
:102EC0000024F4001800002000127A001C000020EA
:102ED000F84908807047F749891C08807047F54811
:102EE000801C00887047F34A1080921C1180704744
:102EF00010B504462046FFF7EBFF052002F078FAF4
:102F0000FFF7EDFF10BDEC48C079EA490880704733
:102F1000E849891C0880704730B5014601F01F045C
:102F2000C1F34513CA0AE50205EB43151544A8B2DF
:102F300030BD00BF0100A0F10102D0B2FAD170474C
:102F400010B503460C46DC488088A0F51341413992
:102F500005D0D9488088A0F5D041043914D1D6498C
:102F6000087AFFF7B5FF1812FFF7B5FFD8B2FFF7E1
:102F7000B2FFD149487AFFF7ABFF2012FFF7ABFF52
:102F8000E0B2FFF7A8FF12E0CB488079012804D116
:102F9000C9480088401EC01A83B2C749087A19463A
:102FA000FFF7A1FFC449487A2146FFF79CFF10BDF7
:102FB0002DE9F04105460E4600240027A046BE48F4
:102FC0000088A84203DDBC484088B04202DC0020F3
:102FD000BDE8F08131462846FFF7B2FFB648808849
:102FE000A0F51341413905D0B3488088A0F5D04100
:102FF000043903D12E20FFF76BFF02E02220FFF7F8
:1030000067FFAD488088A0F51341203902D1022026
:10301000FFF78FFFA748801C008800B10024022022
:10302000FFF787FFA348801C0488A3488088A0F589
:10303000134141390CD10220FFF77BFF9D48801CD2
:10304000B0F80080E7B24FF6FF7000EA072708E00B
:1030500099488088A0F5D041043902D19548801C58
:10306000048895488088A0F51341253917D09248E7
:103070008088A0F58A41353911D08F488088A0F525
:103080008A4131390BD08C488088A0F509418939B3
:1030900005D089488088A0F53541053901D1204601
:1030A00096E785488088A0F51341413907D1E012A1
:1030B000C002B91240EA411040EAE82088E7204601
:1030C000FFF72AFF84E700B57B488088A0F513410D
:1030D000413905D078488088A0F5D041043903D122
:1030E0002920FFF7F5FE04E040F273110720FFF7F7
:1030F000FAFE00BD00B570488088A0F51341413943
:1031000005D06D488088A0F5D041043903D128202E
:10311000FFF7DEFE03E000210720FFF7E4FE00BD1D
:10312000F0B50546002400276348807901281ED1A8
:1031300061488088A0F5D041043918D0082D15D2F7
:10314000DFE805F00406080A0C0E101206250DE053
:1031500007250BE0042509E0052507E0012505E02A
:10316000002503E0032501E0022500BF00BF52480F
:103170008088A0F51341413905D04F488088A0F5DB
:10318000D04104397CD1082D1CD2DFE805F00406BB
:10319000090C0F12151800BF14E044F0800411E070
:1031A00044F040040EE044F0C0040BE044F020047E
:1031B00008E044F0600405E044F0A00402E044F0BC
:1031C000E00400BF00BF362744F008043A48808876
:1031D000A0F5D041043901D144F00204214638461B
:1031E000FFF781FE14F0200F0DD0334800883249DC
:1031F0004988884214DA3048068840882E49088079
:10320000084646800CE02C4800882B4949888842B3
:1032100006DD2948068840882749088008464680F8
:103220002549087AFFF754FE0020FFF754FE0020DE
:10323000FFF751FE20490988491EC1F30F20FFF70F
:103240004AFE1D490978491EC8B2FFF744FE1A49D3
:10325000487AFFF73DFE0020FFF73DFE0020FFF714
:103260003AFE15494988491EC1F30F20FFF733FE86
:1032700011498978491EC8B2FFF72DFE37E0FFE7F4
:10328000082D21D2DFE805F004070A0D0F121A1DE0
:1032900044F0300418E044F0100415E044F0200439
:1032A00012E000BF10E044F038040DE044F02804C0
:1032B0000AE00000FEFF0F603800002044F0180410
:1032C00002E044F0080400BF00BFFE488088A0F57B
:1032D0000941893904D1112746F24000044302E034
:1032E000032744F4805421463846FFF7FCFDF0BD27
:1032F00030B504460D4629462046FFF721FEFFF76C
:1033000002FEF1480088F149088030BD30B503461F
:103310000C461546EB488088A0F51341413905D08D
:10332000E8488088A0F5D041043914D1E549087AED
:10333000FFF7CEFD1812FFF7CEFDD8B2FFF7CBFD99
:10334000E049487AFFF7C4FD2012FFF7C4FDE0B260
:10335000FFF7C1FD12E0DB488079012804D1D9488C
:103360000088401EC01A83B2D649087A1946FFF772
:10337000BAFDD449487A2146FFF7B5FDD148C07956
:10338000D249891E0880881C058030BD10B50446CE
:10339000002C3DD1CB498871F02008804FF4A070FB
:1033A000488008468088A0F51341413905D0C548BA
:1033B0008088A0F5D041043914D12C20C149C871AE
:1033C0002A2008722B20487208468088A0F5D04138
:1033D00004394ED14FF4A070BA4908804FF4F07010
:1033E000488046E0B7488088A0F50941893907D16F
:1033F0002220B449C8714E2008724F20487238E02C
:103400002220B049C871202008722120487230E083
:10341000AC488088A0F5D04104392AD00120A949C0
:1034200088714FF4A0700880F0204880084680889A
:10343000A0F51341413907D12C20A249C8712A2097
:1034400008722B20487214E09E488088A0F509413C
:10345000893907D122209B49C8714F2008724E201C
:10346000487206E022209749C87121200872202066
:1034700048720020FFF754FE10BD70B504460026C8
:10348000904805884088454300210846FFF758FDCD
:10349000FFF739FD00BF02E08C480480761CAE4285
:1034A000FAD370BD00B59FB001210846FEF74EFA71
:1034B00001211A20FEF728FA01208DF87800032058
:1034C0008DF8790000208DF87A0004201D900020EE
:1034D0008DF87B001DA97E48FDF7D0FF03208DF8F5
:1034E000790002208DF878004CF203701D901DA920
:1034F0007848FDF7C3FF4FF680701D901DA97448F2
:10350000FDF7BCFF10201D901DA97248FDF7B6FF06
:1035100020201D901DA96F48FDF7B0FF80201D9051
:103520001DA96C48FDF7AAFF08201D901DA9684839
:10353000FDF7A4FF0C2200216648FEF72AF80C22B2
:1035400001216448FEF725F80C2204216148FEF7AA
:1035500020F80C2205215F48FEF71BF80C220721FA
:103560005C48FEF716F80C2208215A48FEF711F8BD
:103570000C2209215748FEF70CF80C220A21554865
:10358000FEF707F80C2203215148FEF702F80C223F
:103590000E215048FDF7FDFF0C220F214D48FDF78D
:1035A000F8FF0C2207214A48FDF7F3FF0C220821FF
:1035B0004748FDF7EEFF0C2209214548FDF7E9FFDA
:1035C0000C220A214248FDF7E4FF0C220B2140485F
:1035D000FDF7DFFF0C2211463D48FDF7DAFF0C2214
:1035E0000D213B48FDF7D5FF0C220E213848FDF791
:1035F000D0FF0C220F213648FDF7CBFF05200790A6
:10360000002008900920099000200A900B900C904F
:103610000D900520009000200190092002900020CC
:10362000039004900590069000210846FDF76FFC7A
:1036300000200E900F9010901020119000201290FA
:1036400014901390159016904FF48050179000200E
:1036500018904FF48040199000201A9007A81B90F2
:10366000CDF870D00EA8FDF7A9FB01210020FDF7D1
:103670004EFC10211748FDF77DFF20211548FDF76E
:1036800079FF80211348FDF775FF322001F0BAFE63
:1036900001210020FFF727FC322001F0B3FE0020BB
:1036A000FFF726FC0749888008468088FF2816DB3C
:1036B00008468088A0F57F41FF3910D001488088F6
:1036C0000AE00000380000202C00002000001060FC
:1036D00000100240000C0240B0F5134F4BD1D32034
:1036E000FFF7F6FBFFF7FBFBFFF7F9FBFFF7F7FB35
:1036F000FE498880084680884FF6FF7101EA002065
:10370000FA498880FFF7EBFBF84989880843F749B5
:10371000888008468088A0F5134141391BD0BF201E
:10372000FFF7D6FBFFF7DBFBFFF7D9FBFFF7D7FB74
:10373000FFF7D5FBED498880084680884FF6FF717A
:1037400001EA0020E9498880FFF7C9FBE749898839
:103750000843E6498880E5488088A0F5134141394F
:1037600009D0E2488088A0F5D041043903D049F25D
:103770004130DE498880DD488188DDA002F0E0FA32
:10378000DA488088A0F5134141397CD1CF20FFF77A
:103790009FFB0020FFF79FFBC120FFF79CFB302021
:1037A000FFF799FBED20FFF793FB6420FFF793FBF6
:1037B0000320FFF790FB1220FFF78DFB8120FFF71E
:1037C0008AFBE820FFF784FB8520FFF784FB1020AD
:1037D000FFF781FB7A20FFF77EFBCB20FFF778FB1A
:1037E0003920FFF778FB2C20FFF775FB0020FFF74F
:1037F00072FB3420FFF76FFB0220FFF76CFBF72012
:10380000FFF766FB2020FFF766FBEA20FFF760FB6F
:103810000020FFF760FB0020FFF75DFBC020FFF7F3
:1038200057FB1B20FFF757FBC120FFF751FB01207F
:10383000FFF751FBC520FFF74BFB3020FFF74BFB99
:103840003020FFF748FBC720FFF742FBB720FFF708
:1038500042FB3620FFF73CFB4820FFF73CFB3A20B9
:10386000FFF736FB5520FFF736FBB120FFF730FBA3
:103870000020FFF730FB1A20FFF72DFBB620FFF7E3
:1038800027FB0A2000E099E0FFF725FBA220FFF7C5
:1038900022FBF220FFF71CFB0020FFF71CFB262079
:1038A000FFF716FB0120FFF716FBE020FFF710FBE8
:1038B0000F20FFF710FB2A20FFF70DFB2820FFF752
:1038C0000AFB0820FFF707FB0E20FFF704FB082088
:1038D000FFF701FB5420FFF7FEFAA920FFF7FBFAE0
:1038E0004320FFF7F8FA0A20FFF7F5FA0F20FFF759
:1038F000F2FA0020FFF7EFFA0020FFF7ECFA0020C1
:10390000FFF7E9FA0020FFF7E6FAE120FFF7E0FA17
:103910000020FFF7E0FA1520FFF7DDFA1720FFF788
:10392000DAFA0720FFF7D7FA1120FFF7D4FA0620BA
:10393000FFF7D1FA2B20FFF7CEFA5620FFF7CBFA8C
:103940003C20FFF7C8FA0520FFF7C5FA1020FFF763
:10395000C2FA0F20FFF7BFFA3F20FFF7BCFA3F2063
:10396000FFF7B9FA0F20FFF7B6FA2B20FFF7B0FAEE
:103970000020FFF7B0FA0020FFF7ADFA0120FFF7B3
:10398000AAFA3F20FFF7A7FA2A20FFF7A1FA0020A2
:10399000FFF7A1FA0020FFF79EFA0020FFF79BFA3D
:1039A000EF20FFF798FA1120FFF792FA782001F044
:1039B00029FD2920FFF78CFA01F018BA4B488088BE
:1039C000A0F5D04104397CD11120FFF781FA1420F1
:1039D00001F018FDD020FFF77BFA0720FFF77BFAF4
:1039E0004220FFF778FA1D20FFF775FAD120FFF784
:1039F0006FFA0020FFF76FFA1A20FFF76CFA092020
:103A0000FFF769FAD220FFF763FA0120FFF763FAA4
:103A10002220FFF760FAC020FFF75AFA1020FFF7C4
:103A20005AFA3B20FFF757FA0020FFF754FA02201A
:103A3000FFF751FA1120FFF74EFAC520FFF748FAB9
:103A40000320FFF748FAC820FFF742FA0020FFF7EB
:103A500042FA2520FFF73FFA2120FFF73CFA052024
:103A6000FFF739FA0020FFF736FA0A20FFF733FA9A
:103A70006520FFF730FA2520FFF72DFA7720FFF7B2
:103A80002AFA5020FFF727FA0F20FFF724FA002028
:103A9000FFF721FAF820FFF71BFA0120FFF71BFAC6
:103AA000FE20FFF715FA0020FFF715FA0220FFF7B6
:103AB00012FA2020FFF70CFA3620FFF709FA082047
:103AC00000E038E0FFF707FA3A20FFF701FA552047
:103AD000FFF701FA2B20FFF7FBF90020FFF7FBF9B6
:103AE0000020FFF7F8F901200AE00000380000206C
:103AF000204C43442049443A25780D0A0000000038
:103B0000FFF7E9F93F20FFF7E6F92A20FFF7E0F990
:103B10000020FFF7E0F90020FFF7DDF90120FFF7B3
:103B2000DAF9DF20FFF7D7F9782001F06BFC2920C4
:103B3000FFF7CEF940E7FE488088A0F5134125390C
:103B40007ED147F6F001E520FFF7CDF94FF4807103
:103B50000120FFF7C8F94FF4E0610220FFF7C3F935
:103B600041F230010320FFF7BEF900210420FFF7E6
:103B7000BAF940F202210820FFF7B5F90021092027
:103B8000FFF7B1F900210A20FFF7ADF900210C2061
:103B9000FFF7A9F900210D20FFF7A5F900210F205B
:103BA000FFF7A1F900211020FFF79DF9072111204F
:103BB000FFF799F900211220FFF795F90021132052
:103BC000FFF791F900210720FFF78DF941F290618D
:103BD0001020FFF788F940F227211120FFF783F921
:103BE0009D211220FFF77FF94FF4C8511320FFF7F2
:103BF0007AF925212920FFF776F90D212B20FFF7EF
:103C000072F907213020FFF76EF940F203313120BD
:103C1000FFF769F903213220FFF765F940F2062129
:103C20003520FFF760F908213620FFF75CF940F2F4
:103C300006413720FFF757F94FF44171382000E073
:103C400057E0FFF750F907213920FFF74CF940F210
:103C500002613C20FFF747F908213D20FFF743F9B7
:103C600000215020FFF73FF9EF215120FFF73BF9EA
:103C700000215220FFF737F940F23F115320FFF7A0
:103C800032F94FF427416020FFF72DF9012161201F
:103C9000FFF729F900216A20FFF725F9002180208C
:103CA000FFF721F900218120FFF71DF90021822073
:103CB000FFF719F900218320FFF715F9002184206F
:103CC000FFF711F900218520FFF70DF91021902051
:103CD000FFF709F94FF4C0619220FFF704F940F2B1
:103CE00033110720FFF7FFF822210020FFF7FBF830
:103CF00062E68F488088A0F5134128397ED141F2D1
:103D00008F01EC20FFF7EFF841F23421EF20FFF7AD
:103D1000EAF84FF480710120FFF7E5F84FF4E06115
:103D20000220FFF7E0F841F230010320FFF7DBF853
:103D300000210420FFF7D7F840F202210820FFF706
:103D4000D2F800210920FFF7CEF800210A20FFF762
:103D5000CAF801210C20FFF7C6F800210D20FFF75B
:103D6000C2F800210F20FFF7BEF800211020FFF756
:103D7000BAF807211120FFF7B6F800211220FFF74B
:103D8000B2F800211320FFF7AEF801210720FFF75A
:103D9000AAF8322001F036FB41F290411020FFF7E3
:103DA000A2F840F227211120FFF79DF8322001F000
:103DB00029FB8A211220FFF796F8322001F022FB1E
:103DC0004FF4D0511320FFF78EF806212920FFF77A
:103DD0008AF80D212B20FFF786F8322001F012FB24
:103DE00000212020FFF77FF800212120FFF77BF83A
:103DF000322001F007FB0021302000E074E0FFF7E3
:103E000072F840F204613120FFF76DF840F205319D
:103E10003220FFF768F800213520FFF764F840F6FC
:103E200009413620FFF75FF84FF401713720FFF7A3
:103E30005AF840F201313820FFF755F840F2077187
:103E40003920FFF750F800213C20FFF74CF840F6EE
:103E50000A213D20FFF747F8322001F0D3FA002174
:103E60005020FFF740F8EF215120FFF73CF80021E8
:103E70005220FFF738F840F23F115320FFF733F894
:103E80004FF427416020FFF72EF801216120FFF752
:103E90002AF800216A20FFF726F800218020FFF78A
:103EA00022F800218120FFF71EF800218220FFF771
:103EB0001AF800218320FFF716F800218420FFF76D
:103EC00012F800218520FFF70EF810219020FFF74F
:103ED0000AF84FF4C0619220FFF705F840F2331161
:103EE0000720FFF700F867E511488088A0F5134127
:103EF00020397DD10846FEF7F6FF4FF4807101208E
:103F0000FEF7F1FF4FF4E0610220FEF7ECFF41F213
:103F100030010320FEF7E7FF00210420FEF7E3FF56
:103F200040F202210820FEF7DEFF0021092001E017
:103F300038000020FEF7D7FF00210A20FEF7D3FF4C
:103F400001210C20FEF7CFFF00210D20FEF7CBFF53
:103F500000210F20FEF7C7FF322001F053FA40F294
:103F600001110720FEF7BFFF322001F04BFA4FF49A
:103F700086511020FEF7B7FF07211120FEF7B3FF8F
:103F80004FF488711220FEF7AEFF4FF4306113201A
:103F9000FEF7A9FF00212920FEF7A5FF44F210013A
:103FA0002B20FEF7A0FF00215020FEF79CFFEF2101
:103FB0005120FEF798FF00215220FEF794FF40F2B7
:103FC0003F115320FEF78FFF4FF41C516020FEF786
:103FD0008AFF01216120FEF786FF00216A20FEF79B
:103FE00082FF00218020FEF77EFF0021812000E07B
:103FF00030E0FEF778FF00218220FEF774FF0021F9
:104000008320FEF770FF00218420FEF76CFF002163
:104010008520FEF768FF10219020FEF764FF002145
:104020009220FEF760FF01219320FEF75CFF4FF422
:1040300088719520FEF757FF00219720FEF753FF68
:1040400000219820FEF74FFF40F273110720FEF782
:104050004AFFB1E4FE488088A0F5134131397DD193
:1040600041F21401E720FEF73EFF4FF4807101207A
:10407000FEF739FF4FF400710220FEF734FF41F2E2
:1040800038010320FEF72FFF40F202210820FEF73F
:104090002AFF00210920FEF726FF00210A20FEF753
:1040A00022FF00210C20FEF71EFF00210D20FEF74D
:1040B0001AFF00210F20FEF716FF00211020FEF747
:1040C00012FF07211120FEF70EFF00211220FEF73C
:1040D0000AFF00211320FEF706FFC82001F092F925
:1040E00041F290611020FEF7FEFE40F227211120E0
:1040F000FEF7F9FE322001F085F90C211220FEF7BF
:10410000F2FE322001F07EF94FF400611320FEF739
:10411000EAFE11212920FEF7E6FE0B212B20FEF7F7
:10412000E2FE322001F06EF900212020FEF7DBFED6
:1041300040F23F112120FEF7D6FE00213020FEF78D
:10414000D2FE4FF483713120FEF7CDFE00213220E4
:10415000FEF7C9FE4FF40171352000E064E0FEF780
:10416000C2FE41F20A613620FEF7BDFE40F2077141
:104170003720FEF7B8FE4FF483713820FEF7B3FE08
:1041800040F207713920FEF7AEFE40F202413C20BA
:10419000FEF7A9FE40F60F413D20FEF7A4FE0021E8
:1041A0005020FEF7A0FEEF215120FEF79CFE0021DB
:1041B0005220FEF798FE40F23F115320FEF793FE87
:1041C0004FF41C516020FEF78EFE01216120FEF7A6
:1041D0008AFE00216A20FEF786FE00218020FEF77D
:1041E00082FE00218120FEF77EFE00218220FEF764
:1041F0007AFE00218320FEF776FE00218420FEF760
:1042000072FE00218520FEF76EFE10219020FEF741
:104210006AFE4FF4C0619220FEF765FE40F2331152
:104220000720FEF760FE85E489488088A0F5A84154
:1042300008397DD14FF480710120FEF754FE4FF410
:10424000E0610220FEF74FFE41F230010320FEF74D
:104250004AFE00210420FEF746FE40F20721082016
:10426000FEF741FE00210920FEF73DFE00210A2055
:10427000FEF739FE00210C20FEF735FE00210D204F
:10428000FEF731FE00210F20FEF72DFE142001F075
:10429000B9F841F2B0611020FEF725FE012111208E
:1042A000FEF721FE01211720FEF71DFE4FF49C7141
:1042B0001220FEF718FE4FF400611320FEF713FEE4
:1042C00009212920FEF70FFE09212A20FEF70BFE07
:1042D0000021A420FEF707FE00215020FEF703FE78
:1042E000EF215120FEF7FFFD00215220FEF7FBFDDC
:1042F00040F23F115320FEF7F6FD4FF41C516020B1
:10430000FEF7F1FD01216120FEF7EDFD00216A209D
:10431000FEF7E9FD00218020FEF7E5FD0021812068
:10432000FEF7E1FD00218220FEF7DDFD002100E027
:1043300024E08320FEF7D7FD00218420FEF7D3FD83
:1043400000218520FEF7CFFD13219020FEF7CBFD45
:1043500000219220FEF7C7FD03219320FEF7C3FD45
:104360004FF488719520FEF7BEFD40F273110720CF
:10437000FEF7B9FD322001F045F8B9E434488088F1
:10438000A0F5A851053965D10720FEF7ACFD322014
:1043900001F038F84FF48E711220FEF7A4FD0121D0
:1043A000A420FEF7A0FD0F210820FEF79CFD0821A8
:1043B0000A20FEF798FD08210D20FEF794FD40F23B
:1043C00007713020FEF78FFD07213120FEF78BFDAE
:1043D00040F203613220FEF786FD4FF4E0613320A6
:1043E000FEF781FD40F202213420FEF77CFD022120
:1043F0003520FEF778FD41F60F713620FEF773FD8C
:1044000040F207713720FEF76EFD00213820FEF7DD
:104410006AFD00213920FEF766FD40F207713A205F
:10442000FEF761FD00213B20FEF75DFD07213C20EA
:10443000FEF759FD00213D20FEF755FD322000F02A
:10444000E1FF01210720FEF74EFD0121172002E0C8
:1044500038000020AEE0FEF746FD322000F0D2FF2B
:104460004FF4BD511020FEF73EFD40F21721112000
:10447000FEF739FD4FF48F711220FEF734FD4FF433
:1044800070611320FEF72FFD00212A20FEF72BFD7F
:104490000A212920FEF727FD4FF49F711220FEF715
:1044A00022FD00215020FEF71EFDEF215120FEF7D6
:1044B0001AFD00215220FEF716FD40F23F11532055
:1044C000FEF711FD4FF41C516020FEF70CFD012199
:1044D0006120FEF708FD00216A20FEF704FD00219F
:1044E0008020FEF700FD00218120FEF7FCFC00216A
:1044F0008220FEF7F8FC00218320FEF7F4FC002167
:104500008420FEF7F0FC00218520FEF7ECFC13214F
:104510009020FEF7E8FC4FF440719220FEF7E3FC98
:1045200005219320FEF7DFFC00219520FEF7DBFC40
:1045300000219720FEF7D7FC00219820FEF7D3FC3E
:104540004FF480710120FEF7CEFC4FF4E0610220B1
:10455000FEF7C9FC41F238010320FEF7C4FC00213C
:104560000420FEF7C0FC00210C20FEF7BCFC00215B
:104570000F20FEF7B8FC00212020FEF7B4FC00213C
:104580002120FEF7B0FC21210720FEF7ACFC14200F
:1045900000F038FF61210720FEF7A5FC142000F091
:1045A00031FF40F273110720FEF79DFC142000F04C
:1045B00029FF98E4FE488088A0F5354105397DD172
:1045C0000846FEF790FC00210846FEF78CFC00210F
:1045D0000846FEF788FC00210846FEF784FC01210E
:1045E000A420FEF780FC142000F00CFF4FF41C51B7
:1045F0006020FEF778FC40F202210820FEF773FCF1
:104600004FF405713020FEF76EFC43F21571312036
:10461000FEF769FC40F204613220FEF764FC40F6CC
:1046200016613320FEF75FFC42F211213420FEF7C1
:104630005AFC4FF4A8513520FEF755FC48F20751BB
:104640003620FEF750FC41F207413720FEF74BFCC5
:1046500041F203413820FEF746FC20213920FEF7C5
:1046600042FC1A219020FEF73EFC00211020FEF7AC
:104670003AFC07211120FEF736FC00211220FEF73C
:1046800032FC00211320FEF72EFC142000F0BAFEAD
:104690004FF4E6611020FEF726FC40F2371111209E
:1046A000FEF721FC142000F0ADFE4FF4DC71122067
:1046B000FEF719FC142000F0A5FE00E083E04FF4A3
:1046C00070611320FEF70FFC80212A20FEF70BFCFF
:1046D00048212920FEF707FC142000F093FE4FF438
:1046E00080710120FEF7FFFB4FF4E0610220FEF72E
:1046F000FAFB41F238010320FEF7F5FB40F20221FC
:104700000820FEF7F0FB00210A20FEF7ECFB002159
:104710000C20FEF7E8FB00210D20FEF7E4FB302122
:104720000E20FEF7E0FB00215020FEF7DCFBEF211E
:104730005120FEF7D8FB00215220FEF7D4FB40F2B7
:104740003F115320FEF7CFFB4FF41C516020FEF7C2
:10475000CAFB01216120FEF7C6FB00216A20FEF79B
:10476000C2FB11219020FEF7BEFB4FF4C0619220E6
:10477000FEF7B9FB40F202419320FEF7B4FB0221A1
:104780009420FEF7B0FB142000F03CFE012107202E
:10479000FEF7A9FB142000F035FE61210720FEF78B
:1047A000A2FB40F273110720FEF79DFB00212020A1
:1047B000FEF799FB00212120FEF795FB2221002026
:1047C000FEF791FB12E37A488088A0F54541053950
:1047D0007DD10846FEF787FB00210846FEF783FBE4
:1047E000142000F00FFE00210846FEF77CFB00219C
:1047F0000846FEF778FB00210846FEF774FB00210F
:104800000846FEF770FB0121A420FEF76CFB142084
:1048100000F0F8FD4FF41C516020FEF764FB40F6F9
:1048200006010820FEF75FFB40F203713020FEF71F
:104830005AFB01213120FEF756FB04213220FEF7FE
:1048400052FB4FF481713320FEF74DFB4FF4407162
:104850003420FEF748FB40F203113520FEF743FBFE
:104860001F213620FEF73FFB40F203713720FEF791
:104870003AFB01213820FEF736FB04213920FEF7F0
:1048800032FB15219020FEF72EFB4FF482611020A1
:10489000FEF729FB40F247211120FEF724FB4FF4DD
:1048A000DE711220FEF71FFB4FF460611320FEF74C
:1048B0001AFB782000F0A6FD4FF480710120FEF76E
:1048C00012FB4FF400710220FEF70DFB00E050E0F8
:1048D00041F230010320FEF706FB08210A20FEF713
:1048E00002FB00210C20FEF7FEFA20210E20FEF72D
:1048F000FAFA00210F20FEF7F6FA00212020FEF739
:10490000F2FA00212120FEF7EEFA3D212A20FEF7DF
:10491000EAFA142000F076FD2D212920FEF7E3FAB3
:1049200000215020FEF7DFFA4DF2EF015120FEF793
:10493000DAFA00215220FEF7D6FA40F23F11532056
:10494000FEF7D1FA00216120FEF7CDFA00216A209E
:10495000FEF7C9FA4FF440719220FEF7C4FA052120
:104960009320FEF7C0FA4FF480710720FEF7BBFAE0
:104970003CE20F488088A0F5094189397ED10121A8
:104980000020FEF7B0FA4AF6A4010320FEF7ABFAC6
:1049900000210C20FEF7A7FA40F60C010D20FEF7CF
:1049A000A2FA4FF42C510E20FEF79DFAB02101E03F
:1049B000380000201E20FEF796FA42F63F31012013
:1049C000FEF791FA4FF4C0610220FEF78CFA002145
:1049D0001020FEF788FA46F278011120FEF783FADC
:1049E00000210520FEF77FFA00210620FEF77BFA62
:1049F0004EF61C711620FEF776FA03211720FEF7FB
:104A000072FA40F233210720FEF76DFA00210B20E5
:104A1000FEF769FA00210F20FEF765FA0021412018
:104A2000FEF761FA00214220FEF75DFA00214820DE
:104A3000FEF759FA40F23F114920FEF754FA0021DF
:104A40004A20FEF750FA00214B20FEF74CFA4FF4B3
:104A50006F414420FEF747FA00214520FEF743FA54
:104A600040F23F114620FEF73EFA40F20771302037
:104A7000FEF739FA4FF40171312000E03FE0FEF714
:104A800032FA4FF401713220FEF72DFA40F2025152
:104A90003320FEF728FA40F207513420FEF723FABC
:104AA0004FF401713520FEF71EFA4FF401713620E4
:104AB000FEF719FA40F202513720FEF714FA40F2DD
:104AC00002313A20FEF70FFA40F202313B20FEF7A6
:104AD0000AFA00212320FEF706FA00212420FEF71F
:104AE00002FA4FF400412520FEF7FDF900214F2086
:104AF000FEF7F9F900214E20FEF7F5F976E1F748C7
:104B00008088A0F58A4131397ED101210020FEF74D
:104B1000EAF90A2000F076FC41F228611020FEF745
:104B2000E2F90E211220FEF7DEF940F639211320BA
:104B3000FEF7D9F90A2000F065FC40211120FEF7AC
:104B4000D2F950211520FEF7CEF90A2000F05AFCC8
:104B50001E211220FEF7C7F90A2000F053FC4FF483
:104B6000B1511020FEF7BFF942F639211320FEF7AC
:104B7000BAF90A2000F046FC4FF480710120FEF7DC
:104B8000B2F94FF440710220FEF7ADF941F238015D
:104B90000320FEF7A8F940F202210820FEF7A3F94E
:104BA00008210A20FEF79FF900213020FEF79BF92B
:104BB00040F202413120FEF796F94FF48371322022
:104BC000FEF791F940F203513320FEF78CF94FF4D0
:104BD00082713420FEF787F940F201313520FEF76B
:104BE00082F940F207713620FEF77DF940F2053177
:104BF0003720FEF778F94FF402713820FEF773F989
:104C000040F60B71392000E03BE0FEF76CF9022121
:104C10004120FEF768F94FF41C516020FEF763F95C
:104C200001216120FEF75FF94FF404719020FEF737
:104C30005AF94FF485719220FEF755F9042193201B
:104C4000FEF751F94FF48071A020FEF74CF90121D5
:104C50000720FEF748F921210720FEF744F9232118
:104C60000720FEF740F933210720FEF73CF940F218
:104C700033110720FEF737F90021A020FEF733F9A2
:104C8000B4E096488088A0F58A413539F8D13021C2
:104C90001520FEF728F910219A20FEF724F920218B
:104CA0001120FEF720F943F228411020FEF71BF9EE
:104CB00002211220FEF717F941F238011320FEF706
:104CC00012F9282000F09EFB12210846FEF70BF98E
:104CD000282000F097FB43F220411020FEF703F953
:104CE00043F238011320FEF7FEF8462000F08AFB5D
:104CF00000213020FEF7F7F840F202413120FEF7A4
:104D0000F2F840F207313220FEF7EDF84FF441712E
:104D10003320FEF7E8F804213420FEF7E4F840F2EF
:104D200001413520FEF7DFF840F207713620FEF72B
:104D3000DAF840F205313720FEF7D5F84FF4C261BA
:104D40003820FEF7D0F84FF4C2613920FEF7CBF8D7
:104D50004FF480710120FEF7C6F84FF44071022035
:104D6000FEF7C1F841F230010320FEF7BCF840F62F
:104D700008010820FEF7B7F808210A20FEF7B3F86B
:104D80004FF41C516020FEF7AEF801216120FEF7C0
:104D9000AAF84FF49F719020FEF7A5F84FF48071A8
:104DA0009220FEF7A0F84FF480719320FEF79BF855
:104DB0004FF44051A020FEF796F81021A320FEF7F3
:104DC00092F801210720FEF78EF821210720FEF737
:104DD0008AF823210720FEF786F833210720FEF703
:104DE00082F840F233110720FEF77DF80020FEF72D
:104DF000CDFA01203A4908604FF6FF70FEF73DFBFF
:104E00001FB000BD2DE9F04F05460E4617469846E7
:104E1000DDF824A04FF0000B781B401C1FFA80FB2C
:104E2000344613E021462846FEF78AF8FEF76BF871
:104E30004FF0000906E05046FEF74DF809F1010079
:104E40001FFA80F9D945F6DB601C84B24445E9DDE0
:104E5000BDE8F08F2DE9F84F07460D46904699467C
:104E6000DDF828B0A8EB0700401C80B20090A9EB49
:104E70000500401C1FFA80FA002415E0281981B2B1
:104E80003846FEF75DF8FEF73EF8002607E004FB23
:104E90000A603BF8100013490880701C86B2009825
:104EA0008642F4DB601C84B25445E7DBBDE8F88F32
:104EB0002DE9FF4F84B081468A460020039002907E
:104EC0000698A0EB09050798A0EB0A06CDF8049018
:104ED000CDF800A0002D07DD01270BE038000020F1
:104EE00088024242000010600DB9002702E04FF036
:104EF000FF376D42002E02DD4FF0010806E016B9C3
:104F00004FF0000802E04FF0FF387642B54201DD75
:104F10002C4600E034464FF0000B21E0009A91B29D
:104F2000019A90B2FEF7E4F903982844039002989E
:104F3000304402900398A04205DD0398001B0390C3
:104F40000198384401900298A04205DD0298001BA8
:104F500002900098404400900BF101001FFA80FB82
:104F6000601C8345DADD08B0BDE8F08FF0B504467B
:104F70000D4616461F462B46324629462046FFF769
:104F800097FF3B46224629462046FFF791FF3B46C6
:104F9000324639462046FFF78BFF3B4632462946CC
:104FA0003046FFF785FFF0BD2DE9F04306460F467A
:104FB0009046002445460320A0EB48093CE07A1BBC
:104FC00091B2321990B2FEF793F93A1B91B272196D
:104FD00090B2FEF78DF93A1991B2721990B2FEF7BC
:104FE00087F97A1991B2321990B2FEF781F97A19DC
:104FF00091B2321B90B2FEF77BF93A1991B2721B53
:1050000090B2FEF775F97A1B91B2321B90B2FEF79F
:105010006FF93A1B91B2721B90B2FEF769F9641CEA
:10502000B9F1000F03DAA000801D814404E0601B89
:1050300080000A3081446D1EAC42C0DDBDE8F083C3
:105040002DE9F84F05460F4690461E460097C54885
:10505000B0F80090A8F1200000F0FF080A9800289E
:105060004ED1002449E00C2E07D108EB4800BE4980
:1050700001EB800010F804A004E0BC4800EB08102D
:1050800010F804A04FF0000B31E01AF0800F03D0AD
:10509000B448A0F8009003E0B5480088B149088002
:1050A00039462846FEF724F94FEA4A604FEA106A6B
:1050B000781C87B2AF480088A84204DCA948A0F851
:1050C0000090BDE8F88F0098381AB0420BD1009FCD
:1050D000681C85B2A7480088A84203DCA148A0F854
:1050E0000090EEE706E00BF1010000F0FF0BBBF1D2
:1050F000080FCADB00BF601CC4B2B442B3DB44E09B
:10510000002440E00C2E07D108EB4800964901EB43
:10511000800010F804A004E0944800EB081010F898
:1051200004A04FF0000B28E01AF0800F03D039469E
:105130002846FEF7DDF84FEA4A604FEA106A781C0D
:1051400087B28C484088A84203DC8648A0F80090CB
:10515000B7E70098381AB0420BD1009F681C85B29F
:1051600084480088A84203DC7E48A0F80090A8E7A5
:1051700006E00BF1010000F0FF0BBBF1080FD3DBE1
:1051800000BF601CC4B2B442BCDB7648A0F80090FB
:1051900000BF96E710B50246012000E050430B0027
:1051A000A1F10104E1B2F9D110BD2DE9FF4F81B0A9
:1051B000074691461E460E9D4FF0000A002439E036
:1051C000301B401EC1B20A20FFF7E4FFB9FBF0F02C
:1051D0000A21B0FBF1F201FB1208BAF1000F16D15F
:1051E000701EA04213DDB8F1000F0ED10020AB46B7
:1051F00005EBDB71491001FB0471009088B22B466E
:1052000020220299FFF71CFF12E04FF0010A002054
:10521000AB4605EBDB71491001FB0471009088B2CD
:1052200008F13001CAB22B460299FFF709FF00BF0F
:10523000601CC4B2B442C3DB05B0BDE8F08F2DE9F9
:10524000FF4F82B0064692461F46DDE90F48002018
:10525000019000254DE0781B401EC1B20A20FFF7E7
:1052600099FFBAFBF0F00A21B0FBF1F201FB120941
:10527000019850BB781EA84227DDB9F1000F22D15A
:1052800018F0800F0FD008F00100A34604EBDB718B
:10529000491001FB0561009088B223463022039932
:1052A000FFF7CEFE0EE008F00100A34604EBDB7131
:1052B000491001FB0561009088B223462022039922
:1052C000FFF7BEFE13E00120019008F00100A346A5
:1052D00004EBDB71491001FB0561009088B209F114
:1052E0003001CAB223460399FFF7AAFE00BF681C2B
:1052F000C5B2BD42AFDB06B0BDE8F08F2DE9F8477F
:1053000004460D4690469946DDE9096704F0FF0A18
:1053100008EB04001FFA80F809EB05001FFA80F97A
:1053200016E0444502DB5446A81985B24D4500DB22
:1053300014E0002000903A78334629462046FFF7D3
:105340007FFE304606EBD07104EB61018CB27F1C0E
:1053500038787E2802DC38782028E2DA00BFBDE801
:10536000F88700002C00002040600008B4640008AA
:105370002E0000203800002070B504460D46E1B232
:105380002B48FDF798FB00BF40212948FDF743FC5F
:105390000028F9D0204670BD30B526480068264A5E
:1053A000B0FBF2F1481EB0F1807F01D301201BE079
:1053B000481E4FF0E022506150170F22002807DAF4
:1053C00013071D0E1D4B00F00F04241F1D5503E095
:1053D00013071C0E1A4B1C5400BF00204FF0E02294
:1053E000906107201061002008B100BFFEE730BDCA
:1053F00001B514490098086000BF124800680028F1
:10540000FBD108BD01B54FF47A71009848430D49AE
:10541000086000BF0B4800680028FBD108BD0948A0
:10542000006820B107480068401E064908607047C0
:10543000004800401800002040420F0018ED00E036
:1054400000E400E03000002008B5FCF7D7F80120A8
:10545000FCF7F2F8FCF715F9012825D10020FCF73C
:1054600063F90220FCF78CF9072002234FF4A8729D
:1054700008210090C804FCF747F90020FCF790F9D8
:105480000020FCF797F90020FCF79EF90120FCF7BB
:105490004BF900BF3920FCF7D6F80028FAD000BF3E
:1054A000FCF778F90828FBD101211F20FCF72CFA22
:1054B00001210648FCF75BFA01210846FCF768FA6F
:1054C00001218803FCF764FA08BD00000580040090
:1054D00000B587B04FF48060059002208DF8180069
:1054E00005A97E48FBF7CAFF4FF400600590022033
:1054F0008DF8180005A97948FBF7C0FF002178480E
:10550000FDF7AEFA07220A217448FCF742F8072299
:105510000B217248FCF73DF84FF4E1300190002078
:10552000ADF80800ADF80A00ADF80C00ADF81000B9
:105530000C20ADF80E0001A96948FDF709FA012217
:1055400040F225516648FDF741FB27208DF8000009
:1055500008208DF801008DF8020001208DF803006D
:105560006846FBF74EFA01215D48FDF779FA07B06E
:1055700000BDF0B503460D461646002729460A2E03
:1055800003D0002008702846F0BD33B9302001F860
:10559000010B002008702846F6E7002B03DA2D20C7
:1055A00001F8010B5B4242F210720DE093FBF2F442
:1055B00004B937B104F1300001F8010B04FB1233D8
:1055C00001270A2092FBF0F2002AEFDC002008708D
:1055D0002846D9E70FB470B586B006460CA80190EE
:1055E00073E00B9800785C281CD10B98401C0B9042
:1055F00000786E2809D072280FD10D213046FDF7B2
:105600005AFA0B98401C0B900BE00A213046FDF72C
:1056100052FA0B98401C0B9003E00B98401C0B9027
:1056200000BF4BE00B980078252840D10B98401C18
:105630000B900078642818D0732833D1019810C8D3
:1056400001900BE021783046FDF735FA00BF40218C
:105650003046FDF7E0FA0028F9D0641C20780028D5
:10566000F0D10B98401C0B9020E0019820C80190CD
:105670000A2202A92846FFF77CFF02AC0BE0217842
:105680003046FDF718FA00BF40213046FDF7C3FA57
:105690000028F9D0641C20780028F0D10B98401C19
:1056A0000B9003E00B98401C0B9000BF06E00B989A
:1056B00010F8011B0B903046FDF7FDF900BF4021AB
:1056C0003046FDF7A8FA0028F9D00B98007800289A
:1056D00087D106B070BC5DF814FB000000040240E6
:1056E0000048004000B585B04FF4C060FBF784F976
:1056F0000420039000208DF810008DF811008DF823
:10570000120001208DF8130003A91D48FBF7B6FE17
:1057100002210420FCF744FA08208DF8080001203B
:105720008DF809008DF80A008DF80B0002A8FBF730
:1057300068F90420009001208DF8060000208DF803
:1057400004000C208DF805006846FBF79BFA05B0B5
:1057500000BD0C4800BF0100A0F10100FBD1704763
:1057600010B50420FBF7F4FA48B10420FBF7ECFA7B
:1057700004210348FBF7E4FE08B9FFF7EAFF10BD78
:1057800000100240C027090080EA010210B502F0B3
:105790000043400026D04A0023D04FEA106101EBBD
:1057A0001261C0F35600C2F3560240F4000042F406
:1057B0000002A0FB0220A1F17F014FEA0040140487
:1057C00001D000F1010050EA124001D44000491E0E
:1057D000C2B20C0604EBD010401C4008802A02D054
:1057E00003E0002010BD20F00100002900DA0020B5
:1057F000184310BD30B480EA010202F0004530F0D9
:10580000004221F0004015D0A0B1C0F3C753C2F34D
:10581000C754C2F31601C0F31600E41A41F40001A4
:1058200040F400027D34914201D3641C00E0490041
:10583000002C02DA30BC002070474FF40000002337
:10584000914201D3891A034340084FEA4101F7D13D
:1058500051B1914202D14FF0004105E002D24FF028
:10586000010101E06FF0010103EBC450284430BC9A
:1058700000F0BEB92DE9FE4F804681EA0300C00F5B
:105880000C46009021F0004123F00045B8EB0200E7
:10589000A94105D24046214690461C460B46024689
:1058A00023F00040104304D14046214603B0BDE838
:1058B000F08F270DC7F30A00C3F30A510290401A74
:1058C0000190402866DAC3F3130040F4801B00986F
:1058D000924620B10023D2EB030A63EB0B0B019835
:1058E0005946C0F14002504600F051F906460D46B7
:1058F00050465946019A00F069F910EB08006141E1
:10590000002487EA115284EAE7731A433BD0009AD5
:105910003AB3019A012A4FEA075210DC001B61EBEF
:1059200002014FF0004202EA0752CDE90042001C9A
:1059300041F5801132462B4600F09DF9B6E7001B79
:1059400061EB0201001C41F5801300185B41201837
:10595000A2F5001747EB030140EAD570B6196D4177
:1059600011E06D084FEA360645EAC0754FEA075266
:10597000001B61EB0201001C41F5801149084FEA50
:1059800030000019514132462B4603B0BDE8F04FBC
:1059900000F064B90098012240000023D0EB02021D
:1059A00063EBE073009821464FEAE074B8EB000027
:1059B00061EB0401E9E783F000435BE781F000411C
:1059C00058E72DE9FE4F81EA030404F0004421F07A
:1059D000004100944FF0000B23F0004350EA010413
:1059E00002D052EA030404D10020014603B0BDE80E
:1059F000F08FC3F30A54C1F30A552C44A4F2F334D4
:105A00000194A0FB0254C1F3130141F48011C3F3CC
:105A1000130343F4801301FB024400FB034E840A8A
:105A2000970A44EA815447EA8357A4FB0768029522
:105A30008D0A05FB07854FEA932C04FB0C542705C0
:105A4000029D4FEA065847EA1637B5EB08056EEB9C
:105A5000070C870E920E47EA811742EA8312A7FBD2
:105A60000201B6EB0B0164EB00042B0D43EA0C338F
:105A70005E1844EB1C50DA465146E7FB0201C5F3C1
:105A800013044FEA0B3343EA14534FEA0432019CE8
:105A900043EA0603A4F10C040294009CCDE900B48F
:105AA00000F0E9F8A2E720F00040C10DC0F31600B5
:105AB00040F400007F2901DA00207047962903DCBA
:105AC000C1F19601C840704796398840704700F090
:105AD000004230F000400AD0C10D01F56071C0F302
